{
  "contractName": "KANJIDROPERC721A",
  "abi": [
    {
      "inputs": [
        {
          "internalType": "string",
          "name": "name",
          "type": "string"
        },
        {
          "internalType": "string",
          "name": "symbol",
          "type": "string"
        },
        {
          "internalType": "uint96",
          "name": "_royaltyFeesInBips",
          "type": "uint96"
        },
        {
          "internalType": "address",
          "name": "_kanjiAddressFees",
          "type": "address"
        },
        {
          "internalType": "uint256",
          "name": "_kanjiFeesBeneficiaries",
          "type": "uint256"
        },
        {
          "internalType": "address[]",
          "name": "payees",
          "type": "address[]"
        },
        {
          "internalType": "uint256[]",
          "name": "shares_",
          "type": "uint256[]"
        },
        {
          "internalType": "address[]",
          "name": "_payeesBeneficiaries",
          "type": "address[]"
        },
        {
          "internalType": "uint256[]",
          "name": "_sharesBeneficiaries",
          "type": "uint256[]"
        },
        {
          "internalType": "string",
          "name": "__contractURI",
          "type": "string"
        },
        {
          "internalType": "uint256",
          "name": "_maxSupply",
          "type": "uint256"
        }
      ],
      "stateMutability": "nonpayable",
      "type": "constructor"
    },
    {
      "inputs": [],
      "name": "ApprovalCallerNotOwnerNorApproved",
      "type": "error"
    },
    {
      "inputs": [],
      "name": "ApprovalQueryForNonexistentToken",
      "type": "error"
    },
    {
      "inputs": [],
      "name": "ApprovalToCurrentOwner",
      "type": "error"
    },
    {
      "inputs": [],
      "name": "ApproveToCaller",
      "type": "error"
    },
    {
      "inputs": [],
      "name": "BalanceQueryForZeroAddress",
      "type": "error"
    },
    {
      "inputs": [
        {
          "internalType": "uint256",
          "name": "lastClaimTimestamp",
          "type": "uint256"
        },
        {
          "internalType": "uint256",
          "name": "blockTimestamp",
          "type": "uint256"
        },
        {
          "internalType": "uint256",
          "name": "nextValidClaimTimestamp",
          "type": "uint256"
        }
      ],
      "name": "CannotClaimYet",
      "type": "error"
    },
    {
      "inputs": [
        {
          "internalType": "uint256",
          "name": "quantity",
          "type": "uint256"
        },
        {
          "internalType": "uint256",
          "name": "walletClaimCountClaimer",
          "type": "uint256"
        },
        {
          "internalType": "address",
          "name": "claimer",
          "type": "address"
        },
        {
          "internalType": "uint256",
          "name": "maxWalletClaimCount",
          "type": "uint256"
        }
      ],
      "name": "ExceedClaimLimitForWallet",
      "type": "error"
    },
    {
      "inputs": [
        {
          "internalType": "uint256",
          "name": "quantity",
          "type": "uint256"
        },
        {
          "internalType": "uint256",
          "name": "supplyClaimed",
          "type": "uint256"
        },
        {
          "internalType": "uint256",
          "name": "maxClaimableSupply",
          "type": "uint256"
        }
      ],
      "name": "ExceedMaxMintSupply",
      "type": "error"
    },
    {
      "inputs": [
        {
          "internalType": "uint256",
          "name": "quantity",
          "type": "uint256"
        },
        {
          "internalType": "uint256",
          "name": "maxTotalSupply",
          "type": "uint256"
        },
        {
          "internalType": "uint256",
          "name": "nextTokenIdToClaim",
          "type": "uint256"
        }
      ],
      "name": "ExceedMaxTotalSupply",
      "type": "error"
    },
    {
      "inputs": [
        {
          "internalType": "uint256",
          "name": "index",
          "type": "uint256"
        },
        {
          "internalType": "uint256",
          "name": "baseURIIndicesLength",
          "type": "uint256"
        }
      ],
      "name": "InvalidIndex",
      "type": "error"
    },
    {
      "inputs": [
        {
          "internalType": "address",
          "name": "currency",
          "type": "address"
        },
        {
          "internalType": "address",
          "name": "phaseCurrency",
          "type": "address"
        },
        {
          "internalType": "uint256",
          "name": "pricePerToken",
          "type": "uint256"
        },
        {
          "internalType": "uint256",
          "name": "phasePricePerToken",
          "type": "uint256"
        }
      ],
      "name": "InvalidPriceOrCurrency",
      "type": "error"
    },
    {
      "inputs": [
        {
          "internalType": "uint256",
          "name": "quantity",
          "type": "uint256"
        },
        {
          "internalType": "bool",
          "name": "verifyMaxQuantityPerTransaction",
          "type": "bool"
        },
        {
          "internalType": "uint256",
          "name": "quantityLimitPerTransaction",
          "type": "uint256"
        }
      ],
      "name": "InvalidQuantityClaimed",
      "type": "error"
    },
    {
      "inputs": [
        {
          "internalType": "uint256",
          "name": "proofMaxQuantityPerTransaction",
          "type": "uint256"
        },
        {
          "internalType": "uint256",
          "name": "quantity",
          "type": "uint256"
        }
      ],
      "name": "InvalidQuantityProof",
      "type": "error"
    },
    {
      "inputs": [
        {
          "internalType": "uint256",
          "name": "index",
          "type": "uint256"
        },
        {
          "internalType": "uint256",
          "name": "supplyClaimedAlready",
          "type": "uint256"
        },
        {
          "internalType": "uint256",
          "name": "maxClaimableSupply",
          "type": "uint256"
        }
      ],
      "name": "MaxSupply",
      "type": "error"
    },
    {
      "inputs": [
        {
          "internalType": "uint256",
          "name": "maxTotalSupply",
          "type": "uint256"
        },
        {
          "internalType": "uint256",
          "name": "nextTokenIdToMint",
          "type": "uint256"
        }
      ],
      "name": "MaxTotalySupply",
      "type": "error"
    },
    {
      "inputs": [],
      "name": "MintToZeroAddress",
      "type": "error"
    },
    {
      "inputs": [],
      "name": "MintZeroQuantity",
      "type": "error"
    },
    {
      "inputs": [
        {
          "internalType": "uint256",
          "name": "quantity",
          "type": "uint256"
        },
        {
          "internalType": "uint256",
          "name": "nextTokenIdToClaim",
          "type": "uint256"
        },
        {
          "internalType": "uint256",
          "name": "nextTokenIdToMint",
          "type": "uint256"
        }
      ],
      "name": "NotEnoughMintedTokens",
      "type": "error"
    },
    {
      "inputs": [
        {
          "internalType": "bool",
          "name": "validMerkleProof",
          "type": "bool"
        }
      ],
      "name": "NotInWhitelist",
      "type": "error"
    },
    {
      "inputs": [
        {
          "internalType": "uint256",
          "name": "encryptedURILength",
          "type": "uint256"
        }
      ],
      "name": "NothingToReveal",
      "type": "error"
    },
    {
      "inputs": [],
      "name": "OwnerQueryForNonexistentToken",
      "type": "error"
    },
    {
      "inputs": [
        {
          "internalType": "bool",
          "name": "paused",
          "type": "bool"
        },
        {
          "internalType": "address",
          "name": "owner",
          "type": "address"
        },
        {
          "internalType": "address",
          "name": "ownerOfToken",
          "type": "address"
        },
        {
          "internalType": "uint256",
          "name": "startTokenId",
          "type": "uint256"
        }
      ],
      "name": "Paused",
      "type": "error"
    },
    {
      "inputs": [
        {
          "internalType": "uint256",
          "name": "value",
          "type": "uint256"
        },
        {
          "internalType": "uint256",
          "name": "totalPrice",
          "type": "uint256"
        }
      ],
      "name": "PriceNotGood",
      "type": "error"
    },
    {
      "inputs": [
        {
          "internalType": "uint256",
          "name": "conditionId",
          "type": "uint256"
        },
        {
          "internalType": "uint256",
          "name": "merkleProofIndex",
          "type": "uint256"
        },
        {
          "internalType": "bool",
          "name": "limitMerkleProofClaim",
          "type": "bool"
        }
      ],
      "name": "ProofClaimed",
      "type": "error"
    },
    {
      "inputs": [
        {
          "internalType": "uint256",
          "name": "index",
          "type": "uint256"
        },
        {
          "internalType": "uint256",
          "name": "lastConditionStartTimestamp",
          "type": "uint256"
        },
        {
          "internalType": "uint256",
          "name": "startTimestamp",
          "type": "uint256"
        }
      ],
      "name": "StartTimeStamp",
      "type": "error"
    },
    {
      "inputs": [],
      "name": "TransferCallerNotOwnerNorApproved",
      "type": "error"
    },
    {
      "inputs": [],
      "name": "TransferFromIncorrectOwner",
      "type": "error"
    },
    {
      "inputs": [],
      "name": "TransferToNonERC721ReceiverImplementer",
      "type": "error"
    },
    {
      "inputs": [],
      "name": "TransferToZeroAddress",
      "type": "error"
    },
    {
      "anonymous": false,
      "inputs": [
        {
          "indexed": true,
          "internalType": "address",
          "name": "owner",
          "type": "address"
        },
        {
          "indexed": true,
          "internalType": "address",
          "name": "approved",
          "type": "address"
        },
        {
          "indexed": true,
          "internalType": "uint256",
          "name": "tokenId",
          "type": "uint256"
        }
      ],
      "name": "Approval",
      "type": "event"
    },
    {
      "anonymous": false,
      "inputs": [
        {
          "indexed": true,
          "internalType": "address",
          "name": "owner",
          "type": "address"
        },
        {
          "indexed": true,
          "internalType": "address",
          "name": "operator",
          "type": "address"
        },
        {
          "indexed": false,
          "internalType": "bool",
          "name": "approved",
          "type": "bool"
        }
      ],
      "name": "ApprovalForAll",
      "type": "event"
    },
    {
      "anonymous": false,
      "inputs": [
        {
          "components": [
            {
              "internalType": "uint256",
              "name": "startTimestamp",
              "type": "uint256"
            },
            {
              "internalType": "uint256",
              "name": "endTimestamp",
              "type": "uint256"
            },
            {
              "internalType": "uint256",
              "name": "maxClaimableSupply",
              "type": "uint256"
            },
            {
              "internalType": "uint256",
              "name": "supplyClaimed",
              "type": "uint256"
            },
            {
              "internalType": "uint256",
              "name": "quantityLimitPerTransaction",
              "type": "uint256"
            },
            {
              "internalType": "uint256",
              "name": "waitTimeInSecondsBetweenClaims",
              "type": "uint256"
            },
            {
              "internalType": "uint256",
              "name": "pricePerToken",
              "type": "uint256"
            },
            {
              "internalType": "bytes32",
              "name": "merkleRoot",
              "type": "bytes32"
            },
            {
              "internalType": "address",
              "name": "currency",
              "type": "address"
            }
          ],
          "indexed": false,
          "internalType": "struct KANJIDROPERC721A.ClaimCondition[]",
          "name": "claimConditions",
          "type": "tuple[]"
        }
      ],
      "name": "ClaimConditionsUpdated",
      "type": "event"
    },
    {
      "anonymous": false,
      "inputs": [
        {
          "indexed": false,
          "internalType": "uint256",
          "name": "maxTotalSupply",
          "type": "uint256"
        }
      ],
      "name": "MaxTotalSupplyUpdated",
      "type": "event"
    },
    {
      "anonymous": false,
      "inputs": [
        {
          "indexed": false,
          "internalType": "uint256",
          "name": "count",
          "type": "uint256"
        }
      ],
      "name": "MaxWalletClaimCountUpdated",
      "type": "event"
    },
    {
      "anonymous": false,
      "inputs": [
        {
          "indexed": false,
          "internalType": "uint256",
          "name": "id",
          "type": "uint256"
        },
        {
          "indexed": false,
          "internalType": "address",
          "name": "minter",
          "type": "address"
        },
        {
          "indexed": false,
          "internalType": "uint256",
          "name": "quantity",
          "type": "uint256"
        }
      ],
      "name": "Mints",
      "type": "event"
    },
    {
      "anonymous": false,
      "inputs": [
        {
          "indexed": false,
          "internalType": "uint256",
          "name": "endTokenId",
          "type": "uint256"
        },
        {
          "indexed": false,
          "internalType": "string",
          "name": "revealedURI",
          "type": "string"
        }
      ],
      "name": "NFTRevealed",
      "type": "event"
    },
    {
      "anonymous": false,
      "inputs": [
        {
          "indexed": true,
          "internalType": "address",
          "name": "previousOwner",
          "type": "address"
        },
        {
          "indexed": true,
          "internalType": "address",
          "name": "newOwner",
          "type": "address"
        }
      ],
      "name": "OwnershipTransferred",
      "type": "event"
    },
    {
      "anonymous": false,
      "inputs": [
        {
          "indexed": false,
          "internalType": "bool",
          "name": "paused",
          "type": "bool"
        }
      ],
      "name": "Pause",
      "type": "event"
    },
    {
      "anonymous": false,
      "inputs": [
        {
          "indexed": false,
          "internalType": "address",
          "name": "account",
          "type": "address"
        },
        {
          "indexed": false,
          "internalType": "uint256",
          "name": "shares",
          "type": "uint256"
        }
      ],
      "name": "PayeeAdded",
      "type": "event"
    },
    {
      "anonymous": false,
      "inputs": [
        {
          "indexed": false,
          "internalType": "address",
          "name": "from",
          "type": "address"
        },
        {
          "indexed": false,
          "internalType": "uint256",
          "name": "amount",
          "type": "uint256"
        }
      ],
      "name": "PaymentReceived",
      "type": "event"
    },
    {
      "anonymous": false,
      "inputs": [
        {
          "indexed": false,
          "internalType": "address",
          "name": "to",
          "type": "address"
        },
        {
          "indexed": false,
          "internalType": "uint256",
          "name": "amount",
          "type": "uint256"
        }
      ],
      "name": "PaymentReleased",
      "type": "event"
    },
    {
      "anonymous": false,
      "inputs": [
        {
          "indexed": false,
          "internalType": "uint256",
          "name": "claimConditionIndex",
          "type": "uint256"
        },
        {
          "indexed": false,
          "internalType": "address",
          "name": "claimer",
          "type": "address"
        },
        {
          "indexed": false,
          "internalType": "address",
          "name": "receiver",
          "type": "address"
        },
        {
          "indexed": false,
          "internalType": "uint256",
          "name": "startTokenId",
          "type": "uint256"
        },
        {
          "indexed": false,
          "internalType": "uint256",
          "name": "quantityClaimed",
          "type": "uint256"
        }
      ],
      "name": "TokensClaimed",
      "type": "event"
    },
    {
      "anonymous": false,
      "inputs": [
        {
          "indexed": false,
          "internalType": "uint256",
          "name": "startTokenId",
          "type": "uint256"
        },
        {
          "indexed": false,
          "internalType": "uint256",
          "name": "endTokenId",
          "type": "uint256"
        },
        {
          "indexed": false,
          "internalType": "string",
          "name": "baseURI",
          "type": "string"
        },
        {
          "indexed": false,
          "internalType": "bytes",
          "name": "encryptedBaseURI",
          "type": "bytes"
        }
      ],
      "name": "TokensLazyMinted",
      "type": "event"
    },
    {
      "anonymous": false,
      "inputs": [
        {
          "indexed": true,
          "internalType": "address",
          "name": "from",
          "type": "address"
        },
        {
          "indexed": true,
          "internalType": "address",
          "name": "to",
          "type": "address"
        },
        {
          "indexed": true,
          "internalType": "uint256",
          "name": "tokenId",
          "type": "uint256"
        }
      ],
      "name": "Transfer",
      "type": "event"
    },
    {
      "anonymous": false,
      "inputs": [
        {
          "indexed": false,
          "internalType": "address",
          "name": "wallet",
          "type": "address"
        },
        {
          "indexed": false,
          "internalType": "uint256",
          "name": "count",
          "type": "uint256"
        }
      ],
      "name": "WalletClaimCountUpdated",
      "type": "event"
    },
    {
      "inputs": [],
      "name": "MODULE_TYPE",
      "outputs": [
        {
          "internalType": "bytes32",
          "name": "",
          "type": "bytes32"
        }
      ],
      "stateMutability": "view",
      "type": "function"
    },
    {
      "inputs": [],
      "name": "VERSION",
      "outputs": [
        {
          "internalType": "uint256",
          "name": "",
          "type": "uint256"
        }
      ],
      "stateMutability": "view",
      "type": "function"
    },
    {
      "inputs": [],
      "name": "_contractURI",
      "outputs": [
        {
          "internalType": "string",
          "name": "",
          "type": "string"
        }
      ],
      "stateMutability": "view",
      "type": "function"
    },
    {
      "inputs": [
        {
          "internalType": "address",
          "name": "to",
          "type": "address"
        },
        {
          "internalType": "uint256",
          "name": "tokenId",
          "type": "uint256"
        }
      ],
      "name": "approve",
      "outputs": [],
      "stateMutability": "nonpayable",
      "type": "function"
    },
    {
      "inputs": [
        {
          "internalType": "address",
          "name": "owner",
          "type": "address"
        }
      ],
      "name": "balanceOf",
      "outputs": [
        {
          "internalType": "uint256",
          "name": "",
          "type": "uint256"
        }
      ],
      "stateMutability": "view",
      "type": "function"
    },
    {
      "inputs": [
        {
          "internalType": "uint256",
          "name": "",
          "type": "uint256"
        }
      ],
      "name": "baseURIIndices",
      "outputs": [
        {
          "internalType": "uint256",
          "name": "",
          "type": "uint256"
        }
      ],
      "stateMutability": "view",
      "type": "function"
    },
    {
      "inputs": [
        {
          "internalType": "uint256",
          "name": "",
          "type": "uint256"
        }
      ],
      "name": "encryptedBaseURI",
      "outputs": [
        {
          "internalType": "bytes",
          "name": "",
          "type": "bytes"
        }
      ],
      "stateMutability": "view",
      "type": "function"
    },
    {
      "inputs": [
        {
          "internalType": "uint256",
          "name": "tokenId",
          "type": "uint256"
        }
      ],
      "name": "getApproved",
      "outputs": [
        {
          "internalType": "address",
          "name": "",
          "type": "address"
        }
      ],
      "stateMutability": "view",
      "type": "function"
    },
    {
      "inputs": [
        {
          "internalType": "address",
          "name": "account",
          "type": "address"
        }
      ],
      "name": "getShares",
      "outputs": [
        {
          "internalType": "uint256",
          "name": "",
          "type": "uint256"
        }
      ],
      "stateMutability": "view",
      "type": "function"
    },
    {
      "inputs": [
        {
          "internalType": "address",
          "name": "owner",
          "type": "address"
        },
        {
          "internalType": "address",
          "name": "operator",
          "type": "address"
        }
      ],
      "name": "isApprovedForAll",
      "outputs": [
        {
          "internalType": "bool",
          "name": "",
          "type": "bool"
        }
      ],
      "stateMutability": "view",
      "type": "function"
    },
    {
      "inputs": [],
      "name": "maxSupply",
      "outputs": [
        {
          "internalType": "uint256",
          "name": "",
          "type": "uint256"
        }
      ],
      "stateMutability": "view",
      "type": "function"
    },
    {
      "inputs": [],
      "name": "maxTotalSupply",
      "outputs": [
        {
          "internalType": "uint256",
          "name": "",
          "type": "uint256"
        }
      ],
      "stateMutability": "view",
      "type": "function"
    },
    {
      "inputs": [],
      "name": "maxWalletClaimCount",
      "outputs": [
        {
          "internalType": "uint256",
          "name": "",
          "type": "uint256"
        }
      ],
      "stateMutability": "view",
      "type": "function"
    },
    {
      "inputs": [],
      "name": "name",
      "outputs": [
        {
          "internalType": "string",
          "name": "",
          "type": "string"
        }
      ],
      "stateMutability": "view",
      "type": "function"
    },
    {
      "inputs": [],
      "name": "nextTokenIdToClaim",
      "outputs": [
        {
          "internalType": "uint256",
          "name": "",
          "type": "uint256"
        }
      ],
      "stateMutability": "view",
      "type": "function"
    },
    {
      "inputs": [],
      "name": "nextTokenIdToMint",
      "outputs": [
        {
          "internalType": "uint256",
          "name": "",
          "type": "uint256"
        }
      ],
      "stateMutability": "view",
      "type": "function"
    },
    {
      "inputs": [],
      "name": "owner",
      "outputs": [
        {
          "internalType": "address",
          "name": "",
          "type": "address"
        }
      ],
      "stateMutability": "view",
      "type": "function"
    },
    {
      "inputs": [
        {
          "internalType": "uint256",
          "name": "tokenId",
          "type": "uint256"
        }
      ],
      "name": "ownerOf",
      "outputs": [
        {
          "internalType": "address",
          "name": "",
          "type": "address"
        }
      ],
      "stateMutability": "view",
      "type": "function"
    },
    {
      "inputs": [],
      "name": "paused",
      "outputs": [
        {
          "internalType": "bool",
          "name": "",
          "type": "bool"
        }
      ],
      "stateMutability": "view",
      "type": "function"
    },
    {
      "inputs": [
        {
          "internalType": "uint256",
          "name": "index",
          "type": "uint256"
        }
      ],
      "name": "payee",
      "outputs": [
        {
          "internalType": "address",
          "name": "",
          "type": "address"
        }
      ],
      "stateMutability": "view",
      "type": "function"
    },
    {
      "inputs": [
        {
          "internalType": "address payable",
          "name": "account",
          "type": "address"
        }
      ],
      "name": "release",
      "outputs": [],
      "stateMutability": "nonpayable",
      "type": "function"
    },
    {
      "inputs": [],
      "name": "releaseAll",
      "outputs": [],
      "stateMutability": "nonpayable",
      "type": "function"
    },
    {
      "inputs": [
        {
          "internalType": "address",
          "name": "account",
          "type": "address"
        }
      ],
      "name": "released",
      "outputs": [
        {
          "internalType": "uint256",
          "name": "",
          "type": "uint256"
        }
      ],
      "stateMutability": "view",
      "type": "function"
    },
    {
      "inputs": [],
      "name": "renounceOwnership",
      "outputs": [],
      "stateMutability": "nonpayable",
      "type": "function"
    },
    {
      "inputs": [
        {
          "internalType": "uint256",
          "name": "_tokenId",
          "type": "uint256"
        },
        {
          "internalType": "uint256",
          "name": "_salePrice",
          "type": "uint256"
        }
      ],
      "name": "royaltyInfo",
      "outputs": [
        {
          "internalType": "address",
          "name": "",
          "type": "address"
        },
        {
          "internalType": "uint256",
          "name": "",
          "type": "uint256"
        }
      ],
      "stateMutability": "view",
      "type": "function"
    },
    {
      "inputs": [
        {
          "internalType": "address",
          "name": "from",
          "type": "address"
        },
        {
          "internalType": "address",
          "name": "to",
          "type": "address"
        },
        {
          "internalType": "uint256",
          "name": "tokenId",
          "type": "uint256"
        }
      ],
      "name": "safeTransferFrom",
      "outputs": [],
      "stateMutability": "nonpayable",
      "type": "function"
    },
    {
      "inputs": [
        {
          "internalType": "address",
          "name": "from",
          "type": "address"
        },
        {
          "internalType": "address",
          "name": "to",
          "type": "address"
        },
        {
          "internalType": "uint256",
          "name": "tokenId",
          "type": "uint256"
        },
        {
          "internalType": "bytes",
          "name": "_data",
          "type": "bytes"
        }
      ],
      "name": "safeTransferFrom",
      "outputs": [],
      "stateMutability": "nonpayable",
      "type": "function"
    },
    {
      "inputs": [
        {
          "internalType": "address",
          "name": "operator",
          "type": "address"
        },
        {
          "internalType": "bool",
          "name": "approved",
          "type": "bool"
        }
      ],
      "name": "setApprovalForAll",
      "outputs": [],
      "stateMutability": "nonpayable",
      "type": "function"
    },
    {
      "inputs": [],
      "name": "symbol",
      "outputs": [
        {
          "internalType": "string",
          "name": "",
          "type": "string"
        }
      ],
      "stateMutability": "view",
      "type": "function"
    },
    {
      "inputs": [],
      "name": "totalReleased",
      "outputs": [
        {
          "internalType": "uint256",
          "name": "",
          "type": "uint256"
        }
      ],
      "stateMutability": "view",
      "type": "function"
    },
    {
      "inputs": [],
      "name": "totalShares",
      "outputs": [
        {
          "internalType": "uint256",
          "name": "",
          "type": "uint256"
        }
      ],
      "stateMutability": "view",
      "type": "function"
    },
    {
      "inputs": [],
      "name": "totalSupply",
      "outputs": [
        {
          "internalType": "uint256",
          "name": "",
          "type": "uint256"
        }
      ],
      "stateMutability": "view",
      "type": "function"
    },
    {
      "inputs": [
        {
          "internalType": "address",
          "name": "from",
          "type": "address"
        },
        {
          "internalType": "address",
          "name": "to",
          "type": "address"
        },
        {
          "internalType": "uint256",
          "name": "tokenId",
          "type": "uint256"
        }
      ],
      "name": "transferFrom",
      "outputs": [],
      "stateMutability": "nonpayable",
      "type": "function"
    },
    {
      "inputs": [
        {
          "internalType": "address",
          "name": "newOwner",
          "type": "address"
        }
      ],
      "name": "transferOwnership",
      "outputs": [],
      "stateMutability": "nonpayable",
      "type": "function"
    },
    {
      "inputs": [
        {
          "internalType": "address",
          "name": "",
          "type": "address"
        }
      ],
      "name": "walletClaimCount",
      "outputs": [
        {
          "internalType": "uint256",
          "name": "",
          "type": "uint256"
        }
      ],
      "stateMutability": "view",
      "type": "function"
    },
    {
      "stateMutability": "payable",
      "type": "receive"
    },
    {
      "inputs": [
        {
          "internalType": "bytes4",
          "name": "interfaceId",
          "type": "bytes4"
        }
      ],
      "name": "supportsInterface",
      "outputs": [
        {
          "internalType": "bool",
          "name": "",
          "type": "bool"
        }
      ],
      "stateMutability": "view",
      "type": "function"
    },
    {
      "inputs": [],
      "name": "contractURI",
      "outputs": [
        {
          "internalType": "string",
          "name": "",
          "type": "string"
        }
      ],
      "stateMutability": "view",
      "type": "function"
    },
    {
      "inputs": [
        {
          "internalType": "address",
          "name": "receiver",
          "type": "address"
        },
        {
          "internalType": "uint256",
          "name": "quantity",
          "type": "uint256"
        }
      ],
      "name": "mintOwner",
      "outputs": [],
      "stateMutability": "nonpayable",
      "type": "function"
    },
    {
      "inputs": [
        {
          "internalType": "uint256",
          "name": "_tokenId",
          "type": "uint256"
        }
      ],
      "name": "tokenURI",
      "outputs": [
        {
          "internalType": "string",
          "name": "",
          "type": "string"
        }
      ],
      "stateMutability": "view",
      "type": "function"
    },
    {
      "inputs": [
        {
          "internalType": "uint256",
          "name": "_amount",
          "type": "uint256"
        },
        {
          "internalType": "string",
          "name": "_baseURIForTokens",
          "type": "string"
        },
        {
          "internalType": "bytes",
          "name": "_encryptedBaseURI",
          "type": "bytes"
        }
      ],
      "name": "lazyMint",
      "outputs": [],
      "stateMutability": "nonpayable",
      "type": "function"
    },
    {
      "inputs": [
        {
          "internalType": "uint256",
          "name": "index",
          "type": "uint256"
        },
        {
          "internalType": "bytes",
          "name": "_key",
          "type": "bytes"
        }
      ],
      "name": "reveal",
      "outputs": [
        {
          "internalType": "string",
          "name": "revealedURI",
          "type": "string"
        }
      ],
      "stateMutability": "nonpayable",
      "type": "function"
    },
    {
      "inputs": [
        {
          "internalType": "bytes",
          "name": "data",
          "type": "bytes"
        },
        {
          "internalType": "bytes",
          "name": "key",
          "type": "bytes"
        }
      ],
      "name": "encryptDecrypt",
      "outputs": [
        {
          "internalType": "bytes",
          "name": "result",
          "type": "bytes"
        }
      ],
      "stateMutability": "pure",
      "type": "function"
    },
    {
      "inputs": [
        {
          "internalType": "address",
          "name": "_receiver",
          "type": "address"
        },
        {
          "internalType": "uint256",
          "name": "_quantity",
          "type": "uint256"
        },
        {
          "internalType": "address",
          "name": "_currency",
          "type": "address"
        },
        {
          "internalType": "uint256",
          "name": "_pricePerToken",
          "type": "uint256"
        },
        {
          "internalType": "bytes32[]",
          "name": "_proofs",
          "type": "bytes32[]"
        },
        {
          "internalType": "uint256",
          "name": "_proofMaxQuantityPerTransaction",
          "type": "uint256"
        }
      ],
      "name": "claim",
      "outputs": [],
      "stateMutability": "payable",
      "type": "function"
    },
    {
      "inputs": [
        {
          "components": [
            {
              "internalType": "uint256",
              "name": "startTimestamp",
              "type": "uint256"
            },
            {
              "internalType": "uint256",
              "name": "endTimestamp",
              "type": "uint256"
            },
            {
              "internalType": "uint256",
              "name": "maxClaimableSupply",
              "type": "uint256"
            },
            {
              "internalType": "uint256",
              "name": "supplyClaimed",
              "type": "uint256"
            },
            {
              "internalType": "uint256",
              "name": "quantityLimitPerTransaction",
              "type": "uint256"
            },
            {
              "internalType": "uint256",
              "name": "waitTimeInSecondsBetweenClaims",
              "type": "uint256"
            },
            {
              "internalType": "uint256",
              "name": "pricePerToken",
              "type": "uint256"
            },
            {
              "internalType": "bytes32",
              "name": "merkleRoot",
              "type": "bytes32"
            },
            {
              "internalType": "address",
              "name": "currency",
              "type": "address"
            }
          ],
          "internalType": "struct KANJIDROPERC721A.ClaimCondition[]",
          "name": "_phases",
          "type": "tuple[]"
        },
        {
          "internalType": "bool",
          "name": "_resetClaimEligibility",
          "type": "bool"
        }
      ],
      "name": "setClaimConditions",
      "outputs": [],
      "stateMutability": "nonpayable",
      "type": "function"
    },
    {
      "inputs": [
        {
          "internalType": "uint256",
          "name": "_conditionId",
          "type": "uint256"
        },
        {
          "internalType": "address",
          "name": "_claimer",
          "type": "address"
        },
        {
          "internalType": "uint256",
          "name": "_quantity",
          "type": "uint256"
        },
        {
          "internalType": "address",
          "name": "_currency",
          "type": "address"
        },
        {
          "internalType": "uint256",
          "name": "_pricePerToken",
          "type": "uint256"
        },
        {
          "internalType": "bool",
          "name": "verifyMaxQuantityPerTransaction",
          "type": "bool"
        }
      ],
      "name": "verifyClaim",
      "outputs": [],
      "stateMutability": "view",
      "type": "function"
    },
    {
      "inputs": [
        {
          "internalType": "uint256",
          "name": "_conditionId",
          "type": "uint256"
        },
        {
          "internalType": "address",
          "name": "_claimer",
          "type": "address"
        },
        {
          "internalType": "uint256",
          "name": "_quantity",
          "type": "uint256"
        },
        {
          "internalType": "bytes32[]",
          "name": "_proofs",
          "type": "bytes32[]"
        },
        {
          "internalType": "uint256",
          "name": "_proofMaxQuantityPerTransaction",
          "type": "uint256"
        }
      ],
      "name": "verifyClaimMerkleProof",
      "outputs": [
        {
          "internalType": "bool",
          "name": "validMerkleProof",
          "type": "bool"
        },
        {
          "internalType": "uint256",
          "name": "merkleProofIndex",
          "type": "uint256"
        }
      ],
      "stateMutability": "view",
      "type": "function"
    },
    {
      "inputs": [],
      "name": "getBaseURICount",
      "outputs": [
        {
          "internalType": "uint256",
          "name": "",
          "type": "uint256"
        }
      ],
      "stateMutability": "view",
      "type": "function"
    },
    {
      "inputs": [],
      "name": "getActiveClaimConditionId",
      "outputs": [
        {
          "internalType": "uint256",
          "name": "",
          "type": "uint256"
        }
      ],
      "stateMutability": "view",
      "type": "function"
    },
    {
      "inputs": [
        {
          "internalType": "uint256",
          "name": "_conditionId",
          "type": "uint256"
        },
        {
          "internalType": "address",
          "name": "_claimer",
          "type": "address"
        }
      ],
      "name": "getClaimTimestamp",
      "outputs": [
        {
          "internalType": "uint256",
          "name": "lastClaimTimestamp",
          "type": "uint256"
        },
        {
          "internalType": "uint256",
          "name": "nextValidClaimTimestamp",
          "type": "uint256"
        }
      ],
      "stateMutability": "view",
      "type": "function"
    },
    {
      "inputs": [
        {
          "internalType": "uint256",
          "name": "_conditionId",
          "type": "uint256"
        }
      ],
      "name": "getClaimConditionById",
      "outputs": [
        {
          "components": [
            {
              "internalType": "uint256",
              "name": "startTimestamp",
              "type": "uint256"
            },
            {
              "internalType": "uint256",
              "name": "endTimestamp",
              "type": "uint256"
            },
            {
              "internalType": "uint256",
              "name": "maxClaimableSupply",
              "type": "uint256"
            },
            {
              "internalType": "uint256",
              "name": "supplyClaimed",
              "type": "uint256"
            },
            {
              "internalType": "uint256",
              "name": "quantityLimitPerTransaction",
              "type": "uint256"
            },
            {
              "internalType": "uint256",
              "name": "waitTimeInSecondsBetweenClaims",
              "type": "uint256"
            },
            {
              "internalType": "uint256",
              "name": "pricePerToken",
              "type": "uint256"
            },
            {
              "internalType": "bytes32",
              "name": "merkleRoot",
              "type": "bytes32"
            },
            {
              "internalType": "address",
              "name": "currency",
              "type": "address"
            }
          ],
          "internalType": "struct KANJIDROPERC721A.ClaimCondition",
          "name": "condition",
          "type": "tuple"
        }
      ],
      "stateMutability": "view",
      "type": "function"
    },
    {
      "inputs": [
        {
          "internalType": "address",
          "name": "_claimer",
          "type": "address"
        },
        {
          "internalType": "uint256",
          "name": "_count",
          "type": "uint256"
        }
      ],
      "name": "setWalletClaimCount",
      "outputs": [],
      "stateMutability": "nonpayable",
      "type": "function"
    },
    {
      "inputs": [
        {
          "internalType": "uint256",
          "name": "_count",
          "type": "uint256"
        }
      ],
      "name": "setMaxWalletClaimCount",
      "outputs": [],
      "stateMutability": "nonpayable",
      "type": "function"
    },
    {
      "inputs": [
        {
          "internalType": "uint256",
          "name": "_maxTotalSupply",
          "type": "uint256"
        }
      ],
      "name": "setMaxTotalSupply",
      "outputs": [],
      "stateMutability": "nonpayable",
      "type": "function"
    },
    {
      "inputs": [],
      "name": "pause",
      "outputs": [],
      "stateMutability": "nonpayable",
      "type": "function"
    }
  ],
  "bytecode": "0x60a06040523480156200001157600080fd5b5060405162004f3e38038062004f3e833981016040819052620000349162000a31565b85858c8c816002908051906020019062000050929190620006df565b50805162000066906003906020840190620006df565b5050600080555062000078336200039e565b60016009558051825114620000ef5760405162461bcd60e51b815260206004820152603260248201527f5061796d656e7453706c69747465723a2070617965657320616e6420736861726044820152710cae640d8cadccee8d040dad2e6dac2e8c6d60731b60648201526084015b60405180910390fd5b6000825111620001425760405162461bcd60e51b815260206004820152601a60248201527f5061796d656e7453706c69747465723a206e6f207061796565730000000000006044820152606401620000e6565b60005b8251811015620001ae576200019983828151811062000168576200016862000bca565b602002602001015183838151811062000185576200018562000bca565b6020026020010151620003f060201b60201c565b80620001a58162000bf6565b91505062000145565b5050506000865111620002045760405162461bcd60e51b815260206004820152601b60248201527f526f79616c74793a206e6f207061796565732070726f766964656400000000006044820152606401620000e6565b8451865114620002685760405162461bcd60e51b815260206004820152602860248201527f556e657175616c206e756d626572206f66207061796565732f736861726573206044820152671c1c9bdd9a59195960c21b6064820152608401620000e6565b6000805b8451811015620002b7578481815181106200028b576200028b62000bca565b602002602001015182620002a0919062000c14565b915080620002ae8162000bf6565b9150506200026c565b50620002c4888262000c14565b90506127108114620003195760405162461bcd60e51b815260206004820152601860248201527f536861726573206e6f7420657175616c204d41585f42505300000000000000006044820152606401620000e6565b60808290528451620003339060219060208801906200076e565b50835162000349906022906020870190620007c6565b50602380546001600160a01b0319166001600160a01b038b16179055601588905562000376308b620005de565b82516200038b90601f906020860190620006df565b5050505050505050505050505062000c6c565b600880546001600160a01b038381166001600160a01b0319831681179093556040519116919082907f8be0079c531659141344cd1fd0a4f28419497f9722a3daafe3b4186f6b6457e090600090a35050565b6001600160a01b0382166200045d5760405162461bcd60e51b815260206004820152602c60248201527f5061796d656e7453706c69747465723a206163636f756e74206973207468652060448201526b7a65726f206164647265737360a01b6064820152608401620000e6565b60008111620004af5760405162461bcd60e51b815260206004820152601d60248201527f5061796d656e7453706c69747465723a207368617265732061726520300000006044820152606401620000e6565b6001600160a01b0382166000908152600e6020526040902054156200052b5760405162461bcd60e51b815260206004820152602b60248201527f5061796d656e7453706c69747465723a206163636f756e7420616c726561647960448201526a206861732073686172657360a81b6064820152608401620000e6565b60108054600181019091557f1b6847dc741a1b0cd08d278845f9d819d87b734759afb55fe2de5cb82a9ae6720180546001600160a01b0319166001600160a01b0384169081179091556000908152600e60205260409020819055600c546200059590829062000c14565b600c55604080516001600160a01b0384168152602081018390527f40c340f65e17194d14ddddb073d3c9f888e3cb52b5aae0c6c7706b4fbc905fac910160405180910390a15050565b6127106001600160601b03821611156200064e5760405162461bcd60e51b815260206004820152602a60248201527f455243323938313a20726f79616c7479206665652077696c6c206578636565646044820152692073616c65507269636560b01b6064820152608401620000e6565b6001600160a01b038216620006a65760405162461bcd60e51b815260206004820152601960248201527f455243323938313a20696e76616c6964207265636569766572000000000000006044820152606401620000e6565b604080518082019091526001600160a01b039092168083526001600160601b039091166020909201829052600160a01b90910217600a55565b828054620006ed9062000c2f565b90600052602060002090601f0160209004810192826200071157600085556200075c565b82601f106200072c57805160ff19168380011785556200075c565b828001600101855582156200075c579182015b828111156200075c5782518255916020019190600101906200073f565b506200076a92915062000803565b5090565b8280548282559060005260206000209081019282156200075c579160200282015b828111156200075c57825182546001600160a01b0319166001600160a01b039091161782556020909201916001909101906200078f565b8280548282559060005260206000209081019282156200075c57916020028201828111156200075c5782518255916020019190600101906200073f565b5b808211156200076a576000815560010162000804565b634e487b7160e01b600052604160045260246000fd5b604051601f8201601f191681016001600160401b03811182821017156200085b576200085b6200081a565b604052919050565b600082601f8301126200087557600080fd5b81516001600160401b038111156200089157620008916200081a565b6020620008a7601f8301601f1916820162000830565b8281528582848701011115620008bc57600080fd5b60005b83811015620008dc578581018301518282018401528201620008bf565b83811115620008ee5760008385840101525b5095945050505050565b80516001600160601b03811681146200091057600080fd5b919050565b80516001600160a01b03811681146200091057600080fd5b60006001600160401b038211156200094957620009496200081a565b5060051b60200190565b600082601f8301126200096557600080fd5b815160206200097e62000978836200092d565b62000830565b82815260059290921b840181019181810190868411156200099e57600080fd5b8286015b84811015620009c457620009b68162000915565b8352918301918301620009a2565b509695505050505050565b600082601f830112620009e157600080fd5b81516020620009f462000978836200092d565b82815260059290921b8401810191818101908684111562000a1457600080fd5b8286015b84811015620009c4578051835291830191830162000a18565b60008060008060008060008060008060006101608c8e03121562000a5457600080fd5b8b516001600160401b0381111562000a6b57600080fd5b62000a798e828f0162000863565b60208e0151909c5090506001600160401b0381111562000a9857600080fd5b62000aa68e828f0162000863565b9a505062000ab760408d01620008f8565b985062000ac760608d0162000915565b60808d015160a08e015191995097506001600160401b0381111562000aeb57600080fd5b62000af98e828f0162000953565b60c08e015190975090506001600160401b0381111562000b1857600080fd5b62000b268e828f01620009cf565b60e08e015190965090506001600160401b0381111562000b4557600080fd5b62000b538e828f0162000953565b6101008e015190955090506001600160401b0381111562000b7357600080fd5b62000b818e828f01620009cf565b6101208e015190945090506001600160401b0381111562000ba157600080fd5b62000baf8e828f0162000863565b9250506101408c015190509295989b509295989b9093969950565b634e487b7160e01b600052603260045260246000fd5b634e487b7160e01b600052601160045260246000fd5b600060001982141562000c0d5762000c0d62000be0565b5060010190565b6000821982111562000c2a5762000c2a62000be0565b500190565b600181811c9082168062000c4457607f821691505b6020821081141562000c6657634e487b7160e01b600052602260045260246000fd5b50919050565b6080516142a862000c96600039600081816109c10152818161141a0152612b8d01526142a86000f3fe6080604052600436106103395760003560e01c80637a5a8e7e116101ab578063c0e72740116100f7578063e33b7de311610095578063e985e9c51161006f578063e985e9c514610a4d578063f04da65b14610a96578063f2fde38b14610acc578063ffa1ad7414610aec57600080fd5b8063e33b7de314610a03578063e715032214610a18578063e8a3d48514610a3857600080fd5b8063ce805642116100d1578063ce8056421461096f578063d37c353b1461098f578063d5abeb01146109af578063d860483f146109e357600080fd5b8063c0e7274014610925578063c68907de1461093a578063c87b56dd1461094f57600080fd5b806395d89b4111610164578063acd083f81161013e578063acd083f814610898578063af3be890146108ae578063afb82916146108e5578063b88d4fde1461090557600080fd5b806395d89b411461082d5780639852595c14610842578063a22cb4651461087857600080fd5b80637a5a8e7e1461077257806382909959146107855780638456cb59146107a557806386ee745d146107ba5780638b83209b146107ef5780638da5cb5b1461080f57600080fd5b80633ea33f29116102855780635be7fde81161022357806363b45e2d116101fd57806363b45e2d146106985780636f8934f4146106ad57806370a082311461073d578063715018a61461075d57600080fd5b80635be7fde8146106495780635c975abb1461065e5780636352211e1461067857600080fd5b806342842e0e1161025f57806342842e0e146105b55780634352ab41146105d557806350867957146106025780635775029f1461062257600080fd5b80633ea33f29146105555780633f3e4c1114610575578063408cbf941461059557600080fd5b806319165587116102f25780632a55205a116102cc5780632a55205a146104d55780632ab4d052146105145780633a98ef391461052a5780633b1475a71461053f57600080fd5b806319165587146104755780631a26ce6d1461049557806323b872dd146104b557600080fd5b806301ffc9a71461038757806305981769146103bc57806306fdde03146103e0578063081812fc14610402578063095ea7b31461043a57806318160ddd1461045c57600080fd5b36610382577f6ef95f06320e7a25a04a175ca677b7052bdd97131872c2192525a629f51be77033604080516001600160a01b0390921682523460208301520160405180910390a1005b600080fd5b34801561039357600080fd5b506103a76103a236600461373b565b610b01565b60405190151581526020015b60405180910390f35b3480156103c857600080fd5b506103d260135481565b6040519081526020016103b3565b3480156103ec57600080fd5b506103f5610b54565b6040516103b391906137b0565b34801561040e57600080fd5b5061042261041d3660046137c3565b610be6565b6040516001600160a01b0390911681526020016103b3565b34801561044657600080fd5b5061045a610455366004613801565b610c2a565b005b34801561046857600080fd5b50600154600054036103d2565b34801561048157600080fd5b5061045a61049036600461382d565b610cb8565b3480156104a157600080fd5b5061045a6104b0366004613858565b610eb7565b3480156104c157600080fd5b5061045a6104d03660046138de565b61121d565b3480156104e157600080fd5b506104f56104f036600461391f565b611228565b604080516001600160a01b0390931683526020830191909152016103b3565b34801561052057600080fd5b506103d260145481565b34801561053657600080fd5b50600c546103d2565b34801561054b57600080fd5b506103d260115481565b34801561056157600080fd5b5061045a610570366004613801565b6112d6565b34801561058157600080fd5b5061045a6105903660046137c3565b611358565b3480156105a157600080fd5b5061045a6105b0366004613801565b6113ee565b3480156105c157600080fd5b5061045a6105d03660046138de565b6114f8565b3480156105e157600080fd5b506103d26105f036600461382d565b601e6020526000908152604090205481565b34801561060e57600080fd5b5061045a61061d3660046137c3565b611513565b34801561062e57600080fd5b506103d26f4b414e4a4944524f504552433732314160801b81565b34801561065557600080fd5b5061045a611572565b34801561066a57600080fd5b506020546103a79060ff1681565b34801561068457600080fd5b506104226106933660046137c3565b6115c4565b3480156106a457600080fd5b506016546103d2565b3480156106b957600080fd5b506106cd6106c83660046137c3565b6115d6565b6040516103b39190815181526020808301519082015260408083015190820152606080830151908201526080808301519082015260a0808301519082015260c0808301519082015260e08083015190820152610100918201516001600160a01b0316918101919091526101200190565b34801561074957600080fd5b506103d261075836600461382d565b6116b3565b34801561076957600080fd5b5061045a611701565b61045a610780366004613985565b611737565b34801561079157600080fd5b506103f56107a03660046137c3565b61187d565b3480156107b157600080fd5b5061045a611917565b3480156107c657600080fd5b506107da6107d5366004613a09565b61198b565b604080519283526020830191909152016103b3565b3480156107fb57600080fd5b5061042261080a3660046137c3565b6119d2565b34801561081b57600080fd5b506008546001600160a01b0316610422565b34801561083957600080fd5b506103f5611a02565b34801561084e57600080fd5b506103d261085d36600461382d565b6001600160a01b03166000908152600f602052604090205490565b34801561088457600080fd5b5061045a610893366004613a39565b611a11565b3480156108a457600080fd5b506103d260125481565b3480156108ba57600080fd5b506108ce6108c9366004613a67565b611aa7565b6040805192151583526020830191909152016103b3565b3480156108f157600080fd5b5061045a610900366004613ad8565b611c91565b34801561091157600080fd5b5061045a610920366004613be1565b611f87565b34801561093157600080fd5b506103f5611fd2565b34801561094657600080fd5b506103d2611fdf565b34801561095b57600080fd5b506103f561096a3660046137c3565b6120d7565b34801561097b57600080fd5b506103f561098a366004613c8d565b612216565b34801561099b57600080fd5b5061045a6109aa366004613cd8565b6123e7565b3480156109bb57600080fd5b506103d27f000000000000000000000000000000000000000000000000000000000000000081565b3480156109ef57600080fd5b506103d26109fe3660046137c3565b6124e6565b348015610a0f57600080fd5b50600d546103d2565b348015610a2457600080fd5b506103f5610a33366004613d51565b612507565b348015610a4457600080fd5b506103f561257c565b348015610a5957600080fd5b506103a7610a68366004613dac565b6001600160a01b03918216600090815260076020908152604080832093909416825291909152205460ff1690565b348015610aa257600080fd5b506103d2610ab136600461382d565b6001600160a01b03166000908152600e602052604090205490565b348015610ad857600080fd5b5061045a610ae736600461382d565b61258b565b348015610af857600080fd5b506103d2600181565b60006001600160e01b0319821663152a902d60e11b1415610b2457506001919050565b6001600160e01b031982166301ffc9a760e01b1415610b4557506001919050565b610b4e82612623565b92915050565b606060028054610b6390613dda565b80601f0160208091040260200160405190810160405280929190818152602001828054610b8f90613dda565b8015610bdc5780601f10610bb157610100808354040283529160200191610bdc565b820191906000526020600020905b815481529060010190602001808311610bbf57829003601f168201915b5050505050905090565b6000610bf182612648565b610c0e576040516333d1c03960e21b815260040160405180910390fd5b506000908152600660205260409020546001600160a01b031690565b6000610c35826115c4565b9050806001600160a01b0316836001600160a01b03161415610c6a5760405163250fdee360e21b815260040160405180910390fd5b336001600160a01b03821614801590610c8a5750610c888133610a68565b155b15610ca8576040516367d9dca160e11b815260040160405180910390fd5b610cb3838383612673565b505050565b6001600160a01b0381166000908152600e6020526040902054610d315760405162461bcd60e51b815260206004820152602660248201527f5061796d656e7453706c69747465723a206163636f756e7420686173206e6f2060448201526573686172657360d01b60648201526084015b60405180910390fd5b6000805b601054811015610d855760108181548110610d5257610d52613e15565b6000918252602090912001546001600160a01b0316331415610d7357600191505b80610d7d81613e41565b915050610d35565b506000600d5447610d969190613e5c565b6001600160a01b0384166000908152600f6020908152604080832054600c54600e909352908320549394509192610dcd9085613e74565b610dd79190613ea9565b610de19190613ebd565b90508015610eb1576001600160a01b0384166000908152600f6020526040902054610e0d908290613e5c565b6001600160a01b0385166000908152600f6020526040902055600d54610e34908290613e5c565b600d556040516001600160a01b0385169082156108fc029083906000818181858888f19350505050158015610e6d573d6000803e3d6000fd5b50604080516001600160a01b0386168152602081018390527fdf20fd1e76bc69d672e4814fafb2c449bba3a5369d8359adf9e05e6fde87b056910160405180910390a15b50505050565b6008546001600160a01b03163314610ee15760405162461bcd60e51b8152600401610d2890613ed4565b601754601854818315610efb57610ef88284613e5c565b90505b601885905560178190556000805b868110156110b8578015801590610f3c5750878782818110610f2d57610f2d613e15565b90506101200201600001358210155b15610f88578082898984818110610f5557610f55613e15565b604051633e86e8a160e01b8152600481019590955260248501939093525061012090910201356044820152606401610d28565b6000601981610f978487613e5c565b8152602001908152602001600020600301549050888883818110610fbd57610fbd613e15565b905061012002016040013581111561101b5781818a8a85818110610fe357610fe3613e15565b9050610120020160400135604051637ae3231d60e01b8152600401610d28939291909283526020830191909152604082015260600190565b88888381811061102d5761102d613e15565b61012002919091019050601960006110458588613e5c565b8152602001908152602001600020818161105f9190613f16565b50819050601960006110718588613e5c565b815260208101919091526040016000206003015588888381811061109757611097613e15565b905061012002016000013592505080806110b090613e41565b915050610f09565b50841561113d57835b8281101561113757600081815260196020908152604082208281556001810183905560028101839055600381018390556004810183905560058101839055600681018390556007810192909255600890910180546001600160a01b0319169055601b90528061112f81613e41565b9150506110c1565b506111db565b858311156111db57855b838110156111d9576019600061115d8386613e5c565b8152602081019190915260400160009081208181556001810182905560028101829055600381018290556004810182905560058101829055600681018290556007810182905560080180546001600160a01b0319169055601b906111c18386613e5c565b815260200152806111d181613e41565b915050611147565b505b7f97f74e678838bd5d1edd0dd5658639eaf019ba4272a1f3576b92fb84da0ed0e3878760405161120c929190613f94565b60405180910390a150505050505050565b610cb38383836126cf565b6000828152600b602090815260408083208151808301909252546001600160a01b038116808352600160a01b9091046001600160601b031692820192909252829161129d575060408051808201909152600a546001600160a01b0381168252600160a01b90046001600160601b031660208201525b6020810151600090612710906112bc906001600160601b031687613e74565b6112c69190613ea9565b91519350909150505b9250929050565b6008546001600160a01b031633146113005760405162461bcd60e51b8152600401610d2890613ed4565b6001600160a01b0382166000818152601e6020908152604091829020849055815192835282018390527f8973b95d42472e89416ea69404f8038c041db700af9ec294e7b4cd4e1ff2801c910160405180910390a15050565b6008546001600160a01b031633146113825760405162461bcd60e51b8152600401610d2890613ed4565b60115481106113b2576011546040516320f5e1c960e01b8152610d28918391600401918252602082015260400190565b60148190556040518181527ff2672935fc79f5237559e2e2999dbe743bf65430894ac2b37666890e7c69e1af906020015b60405180910390a150565b6008546001600160a01b031633146114185760405162461bcd60e51b8152600401610d2890613ed4565b7f0000000000000000000000000000000000000000000000000000000000000000816012546114479190613e5c565b11156114875760405162461bcd60e51b815260206004820152600f60248201526e557020746f206d6178737570706c7960881b6044820152606401610d28565b601254604080519182526001600160a01b038416602083015281018290527f8992a4dba5c4e140d55220ef4939ffa5e7a26195e82a011cb8dc0f20a22ce15f9060600160405180910390a180601260008282546114e49190613e5c565b909155506114f4905082826128ca565b5050565b610cb383838360405180602001604052806000815250611f87565b6008546001600160a01b0316331461153d5760405162461bcd60e51b8152600401610d2890613ed4565b60138190556040518181527ff9d383c69b6255cbd431ca23734f43bdf15e694c7494956c917498469bcbce73906020016113e3565b60005b6010548110156115c1576115af6010828154811061159557611595613e15565b6000918252602090912001546001600160a01b0316610cb8565b806115b981613e41565b915050611575565b50565b60006115cf826128e4565b5192915050565b611631604051806101200160405280600081526020016000815260200160008152602001600081526020016000815260200160008152602001600081526020016000801916815260200160006001600160a01b031681525090565b50600090815260196020908152604091829020825161012081018452815481526001820154928101929092526002810154928201929092526003820154606082015260048201546080820152600582015460a0820152600682015460c0820152600782015460e08201526008909101546001600160a01b031661010082015290565b60006001600160a01b0382166116dc576040516323d3ad8160e21b815260040160405180910390fd5b506001600160a01b03166000908152600560205260409020546001600160401b031690565b6008546001600160a01b0316331461172b5760405162461bcd60e51b8152600401610d2890613ed4565b61173560006129fe565b565b6002600954141561178a5760405162461bcd60e51b815260206004820152601f60248201527f5265656e7472616e637947756172643a207265656e7472616e742063616c6c006044820152606401610d28565b60026009556000611799611fdf565b90506000806117ac83338b898989611aa7565b909250905083156117c184338c8c8c86611c91565b8280156117ce5750600085115b156117fd576000848152601b60209081526040808320600886901c845290915290208054600160ff85161b1790555b6118088a8a8a612a50565b6118138b858c612b8b565b601254604080518681523360208201526001600160a01b038e16818301526060810192909252608082018c9052517ffa76a4010d9533e3e964f2930a65fb6042a12fa6ff5b08281837a10b0be7321e9181900360a00190a150506001600955505050505050505050565b601d602052600090815260409020805461189690613dda565b80601f01602080910402602001604051908101604052809291908181526020018280546118c290613dda565b801561190f5780601f106118e45761010080835404028352916020019161190f565b820191906000526020600020905b8154815290600101906020018083116118f257829003601f168201915b505050505081565b6008546001600160a01b031633146119415760405162461bcd60e51b8152600401610d2890613ed4565b6020805460ff8082161560ff19909216821783556040519116151581527f9422424b175dda897495a07b091ef74a3ef715cf6d866fc972954c1c7f459304910160405180910390a1565b6000828152601a602090815260408083206001600160a01b03851684528252808320548584526019909252909120600501548101818110156112cf57506000199250929050565b6000601082815481106119e7576119e7613e15565b6000918252602090912001546001600160a01b031692915050565b606060038054610b6390613dda565b6001600160a01b038216331415611a3b5760405163b06307db60e01b815260040160405180910390fd5b3360008181526007602090815260408083206001600160a01b03871680855290835292819020805460ff191686151590811790915590519081529192917f17307eab39ab6107e8899845ad3d59bd9653f200f220920489ca2b5937696c31910160405180910390a35050565b6000868152601960209081526040808320815161012081018352815481526001820154938101939093526002810154918301919091526003810154606083015260048101546080830152600581015460a0830152600681015460c0830152600781015460e083018190526008909101546001600160a01b031661010083015282919015611c8557611baa86868080602002602001604051908101604052809392919081815260200183836020028082843760009201919091525050505060e08301516040516bffffffffffffffffffffffff1960608d901b1660208201526034810188905260540160405160208183030381529060405280519060200120612cbf565b909350915082611bd1576040516370c6733960e11b81528315156004820152602401610d28565b6000898152601b60209081526040808320600886901c8452909152902054600160ff84161b1615611c4f576000898152601b60209081526040808320600886901c84529091529081902054905163b7db28ad60e01b8152600481018b905260248101849052600160ff85161b90911615156044820152606401610d28565b8315801590611c5d57508387115b15611c855760405163494b886b60e01b81526004810185905260248101889052604401610d28565b50965096945050505050565b600086815260196020908152604091829020825161012081018452815481526001820154928101929092526002810154928201929092526003820154606082015260048201546080820152600582015460a0820152600682015460c0820152600782015460e08201526008909101546001600160a01b039081166101008301819052908516141580611d2757508060c001518314155b15611d705761010081015160c0820151604051631e0fe6a960e01b81526001600160a01b0380881660048301529092166024830152604482018590526064820152608401610d28565b841580611d885750818015611d885750806080015185115b15611dbe57608081015160405163060885a360e31b81526004810187905283151560248201526044810191909152606401610d28565b8060400151858260600151611dd39190613e5c565b1115611e0c5760608101516040808301519051635fd6f7e760e01b81526004810188905260248101929092526044820152606401610d28565b60115485601254611e1d9190613e5c565b1115611e52576012546011546040516317a8def760e11b81526004810188905260248101929092526044820152606401610d28565b60145415801590611e71575060145485601254611e6f9190613e5c565b115b15611ea557601454601254604051631c3bab2d60e31b81526004810188905260248101929092526044820152606401610d28565b60135415801590611eda57506013546001600160a01b0387166000908152601e6020526040902054611ed8908790613e5c565b115b15611f2d576001600160a01b0386166000818152601e60205260409081902054601354915163c215eb2160e01b815260048101899052602481019190915260448101929092526064820152608401610d28565b600080611f3a898961198b565b9150915081600014158015611f4e57508042105b15611f7c576040516369140c0760e11b81526004810183905242602482015260448101829052606401610d28565b505050505050505050565b611f928484846126cf565b6001600160a01b0383163b15158015611fb45750611fb284848484612d8d565b155b15610eb1576040516368d2bf6b60e11b815260040160405180910390fd5b601f805461189690613dda565b6018546000905b801561208e5760196000611ffb600184613ebd565b8152602001908152602001600020600001544210158015612066575060196000612026600184613ebd565b81526020019081526020016000206001015442111580612066575060196000612050600184613ebd565b8152602001908152602001600020600101546000145b1561207c57612076600182613ebd565b91505090565b8061208681614034565b915050611fe6565b5060405162461bcd60e51b815260206004820152601960248201527f6e6f20616374697665206d696e7420636f6e646974696f6e2e000000000000006044820152606401610d28565b606060005b60165481101561220057601681815481106120f9576120f9613e15565b90600052602060002001548310156121ee57601d60006016838154811061212257612122613e15565b90600052602060002001548152602001908152602001600020805461214690613dda565b1590506121a457601c60006016838154811061216457612164613e15565b9060005260206000200154815260200190815260200160002060405160200161218d91906140e5565b604051602081830303815290604052915050919050565b601c6000601683815481106121bb576121bb613e15565b906000526020600020015481526020019081526020016000206121dd84612e76565b60405160200161218d929190614102565b6121f9600182613e5c565b90506120dc565b5050604080516020810190915260008152919050565b6008546060906001600160a01b031633146122435760405162461bcd60e51b8152600401610d2890613ed4565b601654841061227357601654604051638671d48760e01b8152610d28918691600401918252602082015260400190565b60006016858154811061228857612288613e15565b906000526020600020015490506000601d600083815260200190815260200160002080546122b590613dda565b80601f01602080910402602001604051908101604052809291908181526020018280546122e190613dda565b801561232e5780601f106123035761010080835404028352916020019161232e565b820191906000526020600020905b81548152906001019060200180831161231157829003601f168201915b5050505050905080516000141561235d5780516040516337097ced60e21b8152600401610d2891815260200190565b612368818686612507565b6000838152601c60209081526040909120825192955061238c9290918601906135de565b506000828152601d602052604081206123a491613662565b7f09b52c0c3a3e08761cd3917c8e49275ed1e0982477b54047add8b4d70513bc8682846040516123d5929190614137565b60405180910390a150505b9392505050565b6008546001600160a01b031633146124115760405162461bcd60e51b8152600401610d2890613ed4565b60115460006124208783613e5c565b60118190556000818152601c6020526040902090915061244190878761369c565b50601680546001810182556000919091527fd833147d7dc355ba459fc788f669e58cfaf9dc25ddcd0702e87d69c7b5124289018190558215612498576000818152601d6020526040902061249690858561369c565b505b7f2a0365091ef1a40953c670dce28177e37520648a6fdc91506bffac0ab045570d8260016124c68a83613e5c565b6124d09190613ebd565b8888888860405161120c96959493929190614179565b601681815481106124f657600080fd5b600091825260209091200154905081565b8251604080518083016020019091528181529060005b8181101561257357600085858360405160200161253c939291906141b9565b60408051601f1981840301815291905280516020918201208884018201511885840182015261256c915082613e5c565b905061251d565b50509392505050565b6060601f8054610b6390613dda565b6008546001600160a01b031633146125b55760405162461bcd60e51b8152600401610d2890613ed4565b6001600160a01b03811661261a5760405162461bcd60e51b815260206004820152602660248201527f4f776e61626c653a206e6577206f776e657220697320746865207a65726f206160448201526564647265737360d01b6064820152608401610d28565b6115c1816129fe565b60006001600160e01b0319821663152a902d60e11b1480610b4e5750610b4e82612f73565b6000805482108015610b4e575050600090815260046020526040902054600160e01b900460ff161590565b60008281526006602052604080822080546001600160a01b0319166001600160a01b0387811691821790925591518593918516917f8c5be1e5ebec7d5bd14f71427d1e84f3dd0314c0f7b2291e5b200ac8c7c3b92591a4505050565b60006126da826128e4565b9050836001600160a01b031681600001516001600160a01b0316146127115760405162a1148160e81b815260040160405180910390fd5b6000336001600160a01b038616148061272f575061272f8533610a68565b8061274a57503361273f84610be6565b6001600160a01b0316145b90508061276a57604051632ce44b5f60e11b815260040160405180910390fd5b6001600160a01b03841661279157604051633a954ecd60e21b815260040160405180910390fd5b61279e8585856001612fc3565b6127aa60008487612673565b6001600160a01b038581166000908152600560209081526040808320805467ffffffffffffffff198082166001600160401b0392831660001901831617909255898616808652838620805493841693831660019081018416949094179055898652600490945282852080546001600160e01b031916909417600160a01b4290921691909102178355870180845292208054919390911661287e57600054821461287e57805460208601516001600160401b0316600160a01b026001600160e01b03199091166001600160a01b038a16171781555b50505082846001600160a01b0316866001600160a01b03167fddf252ad1be2c89b69c2b068fc378daa952ba7f163c4a11628f55a4df523b3ef60405160405180910390a45b5050505050565b6114f4828260405180602001604052806000815250613056565b6040805160608101825260008082526020820181905291810191909152816000548110156129e557600081815260046020908152604091829020825160608101845290546001600160a01b0381168252600160a01b81046001600160401b031692820192909252600160e01b90910460ff161515918101829052906129e35780516001600160a01b03161561297a579392505050565b5060001901600081815260046020908152604091829020825160608101845290546001600160a01b038116808352600160a01b82046001600160401b031693830193909352600160e01b900460ff16151592810192909252156129de579392505050565b61297a565b505b604051636f96cda160e11b815260040160405180910390fd5b600880546001600160a01b038381166001600160a01b0319831681179093556040519116919082907f8be0079c531659141344cd1fd0a4f28419497f9722a3daafe3b4186f6b6457e090600090a35050565b80612a5a57505050565b6000612a668285613e74565b9050803414158015612a9457506001600160a01b03831673eeeeeeeeeeeeeeeeeeeeeeeeeeeeeeeeeeeeeeee145b15612abb57604051633a598dcd60e01b815234600482015260248101829052604401610d28565b60155415612afc57600061271060155483612ad69190613e74565b612ae09190613ea9565b9050612af984336023546001600160a01b031684613063565b50505b60005b6021548110156128c357600061271060228381548110612b2157612b21613e15565b906000526020600020015484612b379190613e74565b612b419190613ea9565b9050612b76853360218581548110612b5b57612b5b613e15565b6000918252602090912001546001600160a01b031684613063565b50508080612b8390613e41565b915050612aff565b7f000000000000000000000000000000000000000000000000000000000000000081601254612bba9190613e5c565b1115612bfa5760405162461bcd60e51b815260206004820152600f60248201526e557020746f206d6178737570706c7960881b6044820152606401610d28565b60008281526019602052604081206003018054839290612c1b908490613e5c565b90915550506000828152601a602090815260408083203384528252808320429055601e90915281208054839290612c53908490613e5c565b9091555050601254604080518281526001600160a01b03861660208201529081018390527f8992a4dba5c4e140d55220ef4939ffa5e7a26195e82a011cb8dc0f20a22ce15f9060600160405180910390a1612cae8282613e5c565b60128190559050610eb184836128ca565b6000808281805b8751811015612d8157612cda600283613e74565b91506000888281518110612cf057612cf0613e15565b60200260200101519050808411612d32576040805160208101869052908101829052606001604051602081830303815290604052805190602001209350612d6e565b6040805160208101839052908101859052606001604051602081830303815290604052805190602001209350600183612d6b9190613e5c565b92505b5080612d7981613e41565b915050612cc6565b50941495939450505050565b604051630a85bd0160e11b81526000906001600160a01b0385169063150b7a0290612dc29033908990889088906004016141cb565b6020604051808303816000875af1925050508015612dfd575060408051601f3d908101601f19168201909252612dfa91810190614208565b60015b612e58573d808015612e2b576040519150601f19603f3d011682016040523d82523d6000602084013e612e30565b606091505b508051612e50576040516368d2bf6b60e11b815260040160405180910390fd5b805181602001fd5b6001600160e01b031916630a85bd0160e11b1490505b949350505050565b606081612e9a5750506040805180820190915260018152600360fc1b602082015290565b8160005b8115612ec45780612eae81613e41565b9150612ebd9050600a83613ea9565b9150612e9e565b6000816001600160401b03811115612ede57612ede613b3f565b6040519080825280601f01601f191660200182016040528015612f08576020820181803683370190505b5090505b8415612e6e57612f1d600183613ebd565b9150612f2a600a86614225565b612f35906030613e5c565b60f81b818381518110612f4a57612f4a613e15565b60200101906001600160f81b031916908160001a905350612f6c600a86613ea9565b9450612f0c565b60006001600160e01b031982166380ac58cd60e01b1480612fa457506001600160e01b03198216635b5e139f60e01b145b80610b4e57506301ffc9a760e01b6001600160e01b0319831614610b4e565b60205460ff168015612ff157506008546001600160a01b0316612fe5836115c4565b6001600160a01b031614155b156130515760205460ff1661300e6008546001600160a01b031690565b613017846115c4565b604051633a0a302960e11b815292151560048401526001600160a01b03918216602484015216604482015260648101839052608401610d28565b610eb1565b610cb383838360016130b4565b60008161307257506000612e6e565b6001600160a01b03851673eeeeeeeeeeeeeeeeeeeeeeeeeeeeeeeeeeeeeeee14156130a8576130a18383613291565b9050612e6e565b6130a1858585856132ef565b6000546001600160a01b0385166130dd57604051622e076360e81b815260040160405180910390fd5b836130fb5760405163b562e8dd60e01b815260040160405180910390fd5b6131086000868387612fc3565b6001600160a01b038516600081815260056020908152604080832080546fffffffffffffffffffffffffffffffff1981166001600160401b038083168c0181169182176801000000000000000067ffffffffffffffff1990941690921783900481168c01811690920217909155858452600490925290912080546001600160e01b031916909217600160a01b4290921691909102179055808085018380156131b957506001600160a01b0387163b15155b15613242575b60405182906001600160a01b038916906000907fddf252ad1be2c89b69c2b068fc378daa952ba7f163c4a11628f55a4df523b3ef908290a461320a6000888480600101955088612d8d565b613227576040516368d2bf6b60e11b815260040160405180910390fd5b808214156131bf57826000541461323d57600080fd5b613288565b5b6040516001830192906001600160a01b038916906000907fddf252ad1be2c89b69c2b068fc378daa952ba7f163c4a11628f55a4df523b3ef908290a480821415613243575b506000556128c3565b600080836001600160a01b03168360405160006040518083038185875af1925050503d80600081146132df576040519150601f19603f3d011682016040523d82523d6000602084013e6132e4565b606091505b509095945050505050565b6000826001600160a01b0316846001600160a01b0316141561331357506000612e6e565b6001600160a01b03841630141561333d576133386001600160a01b038616848461335d565b613352565b6133526001600160a01b0386168585856133c0565b506001949350505050565b6040516001600160a01b038316602482015260448101829052610cb390849063a9059cbb60e01b906064015b60408051601f198184030181529190526020810180516001600160e01b03166001600160e01b0319909316929092179091526133f8565b6040516001600160a01b0380851660248301528316604482015260648101829052610eb19085906323b872dd60e01b90608401613389565b600061344d826040518060400160405280602081526020017f5361666545524332303a206c6f772d6c6576656c2063616c6c206661696c6564815250856001600160a01b03166134ca9092919063ffffffff16565b805190915015610cb3578080602001905181019061346b9190614239565b610cb35760405162461bcd60e51b815260206004820152602a60248201527f5361666545524332303a204552433230206f7065726174696f6e20646964206e6044820152691bdd081cdd58d8d9595960b21b6064820152608401610d28565b6060612e6e8484600085856001600160a01b0385163b61352c5760405162461bcd60e51b815260206004820152601d60248201527f416464726573733a2063616c6c20746f206e6f6e2d636f6e74726163740000006044820152606401610d28565b600080866001600160a01b031685876040516135489190614256565b60006040518083038185875af1925050503d8060008114613585576040519150601f19603f3d011682016040523d82523d6000602084013e61358a565b606091505b509150915061359a8282866135a5565b979650505050505050565b606083156135b45750816123e0565b8251156135c45782518084602001fd5b8160405162461bcd60e51b8152600401610d2891906137b0565b8280546135ea90613dda565b90600052602060002090601f01602090048101928261360c5760008555613652565b82601f1061362557805160ff1916838001178555613652565b82800160010185558215613652579182015b82811115613652578251825591602001919060010190613637565b5061365e929150613710565b5090565b50805461366e90613dda565b6000825580601f1061367e575050565b601f0160209004906000526020600020908101906115c19190613710565b8280546136a890613dda565b90600052602060002090601f0160209004810192826136ca5760008555613652565b82601f106136e35782800160ff19823516178555613652565b82800160010185558215613652579182015b828111156136525782358255916020019190600101906136f5565b5b8082111561365e5760008155600101613711565b6001600160e01b0319811681146115c157600080fd5b60006020828403121561374d57600080fd5b81356123e081613725565b60005b8381101561377357818101518382015260200161375b565b83811115610eb15750506000910152565b6000815180845261379c816020860160208601613758565b601f01601f19169290920160200192915050565b6020815260006123e06020830184613784565b6000602082840312156137d557600080fd5b5035919050565b6001600160a01b03811681146115c157600080fd5b80356137fc816137dc565b919050565b6000806040838503121561381457600080fd5b823561381f816137dc565b946020939093013593505050565b60006020828403121561383f57600080fd5b81356123e0816137dc565b80151581146115c157600080fd5b60008060006040848603121561386d57600080fd5b83356001600160401b038082111561388457600080fd5b818601915086601f83011261389857600080fd5b8135818111156138a757600080fd5b876020610120830285010111156138bd57600080fd5b602092830195509350508401356138d38161384a565b809150509250925092565b6000806000606084860312156138f357600080fd5b83356138fe816137dc565b9250602084013561390e816137dc565b929592945050506040919091013590565b6000806040838503121561393257600080fd5b50508035926020909101359150565b60008083601f84011261395357600080fd5b5081356001600160401b0381111561396a57600080fd5b6020830191508360208260051b85010111156112cf57600080fd5b600080600080600080600060c0888a0312156139a057600080fd5b87356139ab816137dc565b96506020880135955060408801356139c2816137dc565b94506060880135935060808801356001600160401b038111156139e457600080fd5b6139f08a828b01613941565b989b979a5095989497959660a090950135949350505050565b60008060408385031215613a1c57600080fd5b823591506020830135613a2e816137dc565b809150509250929050565b60008060408385031215613a4c57600080fd5b8235613a57816137dc565b91506020830135613a2e8161384a565b60008060008060008060a08789031215613a8057600080fd5b863595506020870135613a92816137dc565b94506040870135935060608701356001600160401b03811115613ab457600080fd5b613ac089828a01613941565b979a9699509497949695608090950135949350505050565b60008060008060008060c08789031215613af157600080fd5b863595506020870135613b03816137dc565b9450604087013593506060870135613b1a816137dc565b92506080870135915060a0870135613b318161384a565b809150509295509295509295565b634e487b7160e01b600052604160045260246000fd5b600082601f830112613b6657600080fd5b81356001600160401b0380821115613b8057613b80613b3f565b604051601f8301601f19908116603f01168101908282118183101715613ba857613ba8613b3f565b81604052838152866020858801011115613bc157600080fd5b836020870160208301376000602085830101528094505050505092915050565b60008060008060808587031215613bf757600080fd5b8435613c02816137dc565b93506020850135613c12816137dc565b92506040850135915060608501356001600160401b03811115613c3457600080fd5b613c4087828801613b55565b91505092959194509250565b60008083601f840112613c5e57600080fd5b5081356001600160401b03811115613c7557600080fd5b6020830191508360208285010111156112cf57600080fd5b600080600060408486031215613ca257600080fd5b8335925060208401356001600160401b03811115613cbf57600080fd5b613ccb86828701613c4c565b9497909650939450505050565b600080600080600060608688031215613cf057600080fd5b8535945060208601356001600160401b0380821115613d0e57600080fd5b613d1a89838a01613c4c565b90965094506040880135915080821115613d3357600080fd5b50613d4088828901613c4c565b969995985093965092949392505050565b600080600060408486031215613d6657600080fd5b83356001600160401b0380821115613d7d57600080fd5b613d8987838801613b55565b94506020860135915080821115613d9f57600080fd5b50613ccb86828701613c4c565b60008060408385031215613dbf57600080fd5b8235613dca816137dc565b91506020830135613a2e816137dc565b600181811c90821680613dee57607f821691505b60208210811415613e0f57634e487b7160e01b600052602260045260246000fd5b50919050565b634e487b7160e01b600052603260045260246000fd5b634e487b7160e01b600052601160045260246000fd5b6000600019821415613e5557613e55613e2b565b5060010190565b60008219821115613e6f57613e6f613e2b565b500190565b6000816000190483118215151615613e8e57613e8e613e2b565b500290565b634e487b7160e01b600052601260045260246000fd5b600082613eb857613eb8613e93565b500490565b600082821015613ecf57613ecf613e2b565b500390565b6020808252818101527f4f776e61626c653a2063616c6c6572206973206e6f7420746865206f776e6572604082015260600190565b60008135610b4e816137dc565b813581556020820135600182015560408201356002820155606082013560038201556080820135600482015560a0820135600582015560c0820135600682015560e082013560078201556114f4613f706101008401613f09565b6008830180546001600160a01b0319166001600160a01b0392909216919091179055565b6020808252818101839052600090604080840186845b87811015614027578135835284820135858401528382013584840152606080830135908401526080808301359084015260a0808301359084015260c0808301359084015260e080830135908401526101006140068184016137f1565b6001600160a01b031690840152610120928301929190910190600101613faa565b5090979650505050505050565b60008161404357614043613e2b565b506000190190565b8054600090600181811c908083168061406557607f831692505b602080841082141561408757634e487b7160e01b600052602260045260246000fd5b81801561409b57600181146140ac576140d9565b60ff198616895284890196506140d9565b60008881526020902060005b868110156140d15781548b8201529085019083016140b8565b505084890196505b50505050505092915050565b60006140f1828461404b565b600360fc1b81526001019392505050565b600061410e828561404b565b835161411e818360208801613758565b64173539b7b760d91b9101908152600501949350505050565b828152604060208201526000612e6e6040830184613784565b81835281816020850137506000828201602090810191909152601f909101601f19169091010190565b868152856020820152608060408201526000614199608083018688614150565b82810360608401526141ac818587614150565b9998505050505050505050565b82848237909101908152602001919050565b6001600160a01b03858116825284166020820152604081018390526080606082018190526000906141fe90830184613784565b9695505050505050565b60006020828403121561421a57600080fd5b81516123e081613725565b60008261423457614234613e93565b500690565b60006020828403121561424b57600080fd5b81516123e08161384a565b60008251614268818460208701613758565b919091019291505056fea2646970667358221220a8b91ed66f1e2ff119cba7b58118fe672e5720f6a904a9c01dcb53b76dc6944164736f6c634300080b0033",
  "immutableReferences": {
    "9884": [
      {
        "length": 32,
        "start": 2497
      },
      {
        "length": 32,
        "start": 5146
      },
      {
        "length": 32,
        "start": 11149
      }
    ]
  },
  "source": "// SPDX-License-Identifier: MIT\n// KANJIDROPERC721A.sol\npragma solidity ^0.8.6;\n\nimport \"@openzeppelin/contracts/access/Ownable.sol\";\nimport \"@openzeppelin/contracts/utils/Strings.sol\";\nimport \"@openzeppelin/contracts/security/ReentrancyGuard.sol\";\nimport \"@openzeppelin/contracts/token/common/ERC2981.sol\";\nimport \"@openzeppelin/contracts/utils/structs/BitMaps.sol\";\n\nimport \"erc721a/contracts/ERC721A.sol\";\nimport \"./lib/PaymentSplitter.sol\";\nimport \"./lib/MerkleProof.sol\";\nimport \"./lib/CurrencyTransferLib.sol\";\n\ncontract KANJIDROPERC721A is ERC721A, Ownable, ReentrancyGuard, ERC2981, PaymentSplitter {\n\n    using Strings for uint256;\n    using BitMaps for BitMaps.BitMap;\n\n    /*///////////////////////////////////////////////////////////////\n                                Structure\n    //////////////////////////////////////////////////////////////*/\n    struct ClaimCondition {\n        uint256 startTimestamp;\n        uint256 endTimestamp;\n        uint256 maxClaimableSupply;\n        uint256 supplyClaimed;\n        uint256 quantityLimitPerTransaction;\n        uint256 waitTimeInSecondsBetweenClaims;\n        uint256 pricePerToken;\n        bytes32 merkleRoot;\n        address currency;\n    }\n    \n    struct ClaimConditionList {\n        uint256 currentStartId;\n        uint256 count;\n        mapping(uint256 => ClaimCondition) phases;\n        mapping(uint256 => mapping(address => uint256)) limitLastClaimTimestamp;\n        mapping(uint256 => BitMaps.BitMap) limitMerkleProofClaim;\n    }\n    \n    /*///////////////////////////////////////////////////////////////\n                                Global Variable\n    //////////////////////////////////////////////////////////////*/\n\n    /// @dev Max bps in the system.\n    uint256 private constant MAX_BPS = 10000;\n\n    /// @dev The next token ID of the NFT to \"lazy mint\".\n    uint256 public nextTokenIdToMint;\n\n    /// @dev The next token ID of the NFT that can be claimed.\n    uint256 public nextTokenIdToClaim;\n\n    /// @dev The max number of NFTs a wallet can claim.\n    uint256 public maxWalletClaimCount;\n\n    /// @dev Global max total supply of NFTs.\n    uint256 public maxTotalSupply;\n\n    /// @dev The amount % of receiver fees of KANJI (10000 = 100 %) \n    uint256 private kanjiFeesBeneficiaries;\n    \n    /// @dev Version of contract\n    uint256 public constant VERSION = 1;\n    \n    /// @dev Max total mint for customer only\n    uint256 public immutable maxSupply;\n\n    /// @dev Largest tokenId of each batch of tokens with the same baseURI\n    uint256[] public baseURIIndices;\n\n    /// @dev The set of all claim conditions, at any given moment.\n    ClaimConditionList private claimCondition;\n\n    /*///////////////////////////////////////////////////////////////\n                                Mappings\n    //////////////////////////////////////////////////////////////*/\n\n    /**\n     *  @dev Mapping from 'Largest tokenId of a batch of tokens with the same baseURI'\n     *       to base URI for the respective batch of tokens.\n     **/\n    mapping(uint256 => string) private baseURI;\n\n    /**\n     *  @dev Mapping from 'Largest tokenId of a batch of 'delayed-reveal' tokens with\n     *       the same baseURI' to encrypted base URI for the respective batch of tokens.\n     **/\n    mapping(uint256 => bytes) public encryptedBaseURI;\n\n    /// @dev Mapping from address => total number of NFTs a wallet has claimed.\n    mapping(address => uint256) public walletClaimCount;\n\n    /// @dev open sea contract level metadata\n    string public _contractURI;\n    /// @dev pause the transfer only by owner\n    bool public paused;\n    /// @dev INTERFACE SUPPORTED\n    bytes4 private constant _INTERFACE_ID_ERC2981 = 0x2a55205a;\n    bytes4 private constant _INTERFACE_ID_ERC165 = 0x01ffc9a7;\n\n    /// @dev The address of receiver fees of beneficiaries BRAND for each claim\n    address[] private payeesBeneficiaries;\n    /// @dev The amount % of receiver fees of beneficiaries BRAND (10000 = 100 %) for each claim\n    uint256[] private sharesBeneficiaries;\n\n    /// @dev The address of receiver fees of KANJI\n    address private kanjiAddressFees;\n\n    /// @dev Type of contract\n    bytes32 public constant MODULE_TYPE = bytes32(\"KANJIDROPERC721A\");\n\n\n    event Mints(\n        uint256 id,\n        address minter,\n        uint256 quantity\n    );\n    \n    event Pause(\n        bool paused\n    );\n\n    event TokensClaimed(\n        uint256 claimConditionIndex,\n        address claimer,\n        address receiver,\n        uint256 startTokenId,\n        uint256 quantityClaimed\n    );\n\n    /// @dev Emitted when tokens are lazy minted.\n    event TokensLazyMinted(\n        uint256 startTokenId,\n        uint256 endTokenId,\n        string baseURI,\n        bytes encryptedBaseURI\n    );\n\n    /// @dev Emitted when the URI for a batch of 'delayed-reveal' NFTs is revealed.\n    event NFTRevealed(\n        uint256 endTokenId,\n        string revealedURI\n    );\n\n    /// @dev Emitted when the wallet claim count for an address is updated.\n    event WalletClaimCountUpdated(\n        address wallet,\n        uint256 count\n    );\n\n    /// @dev Emitted when new claim conditions are set.\n    event ClaimConditionsUpdated(ClaimCondition[] claimConditions);\n\n    /// @dev Emitted when the global max supply of tokens is updated.\n    event MaxTotalSupplyUpdated(uint256 maxTotalSupply);\n\n    /// @dev Emitted when the global max wallet claim count is updated.\n    event MaxWalletClaimCountUpdated(uint256 count);\n\n    error NothingToReveal(uint256 encryptedURILength);\n\n    error InvalidIndex(uint256 index, uint256 baseURIIndicesLength);\n\n    error StartTimeStamp(uint256 index, uint256 lastConditionStartTimestamp, uint256 startTimestamp);\n\n    error MaxSupply(uint256 index, uint256 supplyClaimedAlready, uint256 maxClaimableSupply);\n\n    error PriceNotGood(uint256 value, uint256 totalPrice);\n\n    error InvalidPriceOrCurrency(address currency, address phaseCurrency, uint256 pricePerToken, uint256 phasePricePerToken);\n    \n    error InvalidQuantityClaimed(uint256 quantity, bool verifyMaxQuantityPerTransaction, uint256 quantityLimitPerTransaction);\n\n    error ExceedMaxMintSupply(uint256 quantity, uint256 supplyClaimed, uint256 maxClaimableSupply);\n\n    error NotEnoughMintedTokens(uint256 quantity, uint256 nextTokenIdToClaim, uint256 nextTokenIdToMint);\n\n    error ExceedMaxTotalSupply(uint256 quantity, uint256 maxTotalSupply, uint256 nextTokenIdToClaim);\n\n    error ExceedClaimLimitForWallet(uint256 quantity, uint256 walletClaimCountClaimer, address claimer, uint256 maxWalletClaimCount);\n\n    error CannotClaimYet(uint256 lastClaimTimestamp, uint256 blockTimestamp, uint256 nextValidClaimTimestamp);\n\n    error NotInWhitelist(bool validMerkleProof);\n\n    error ProofClaimed(uint256 conditionId, uint256 merkleProofIndex, bool limitMerkleProofClaim);\n\n    error InvalidQuantityProof(uint256 proofMaxQuantityPerTransaction, uint256 quantity);\n\n    error MaxTotalySupply(uint256 maxTotalSupply, uint256 nextTokenIdToMint);\n\n    error Paused(bool paused, address owner, address ownerOfToken, uint256 startTokenId);\n\n    constructor(\n        string memory name,\n        string memory symbol,\n        uint96 _royaltyFeesInBips,\n        address _kanjiAddressFees,\n        uint256 _kanjiFeesBeneficiaries,\n        address[] memory payees,\n        uint256[] memory shares_,\n        address[] memory _payeesBeneficiaries,\n        uint256[] memory _sharesBeneficiaries,\n        string memory __contractURI,\n        uint256 _maxSupply\n    ) PaymentSplitter(payees,shares_) ERC721A(name, symbol){\n        require(payees.length > 0, \"Royalty: no payees provided\");\n        require(payees.length == shares_.length, \"Unequal number of payees/shares provided\");\n        uint256 totalSharesBeneficiaries;\n        for (uint256 index = 0; index < _sharesBeneficiaries.length; index++) {\n            totalSharesBeneficiaries += _sharesBeneficiaries[index];\n        }\n        totalSharesBeneficiaries+=_kanjiFeesBeneficiaries;\n        require(totalSharesBeneficiaries==MAX_BPS,\"Shares not equal MAX_BPS\");\n        maxSupply = _maxSupply;\n        \n        payeesBeneficiaries = _payeesBeneficiaries;//dispatch address of royalties platform (open sea rarible ect)\n        sharesBeneficiaries = _sharesBeneficiaries;//percent of royalties platform (open sea rarible ect)\n\n        kanjiAddressFees = _kanjiAddressFees;\n        kanjiFeesBeneficiaries = _kanjiFeesBeneficiaries;\n    \n        _setDefaultRoyalty(payable(address(this)),_royaltyFeesInBips);\n        _contractURI = __contractURI;\n    }\n\n    function supportsInterface(bytes4 interfaceId) public view virtual override(ERC721A,ERC2981) returns (bool) {\n        if(interfaceId == _INTERFACE_ID_ERC2981) {\n            return true;\n        }\n        if(interfaceId == _INTERFACE_ID_ERC165) {\n            return true;\n        }\n        return super.supportsInterface(interfaceId);\n    } \n\n    /// @notice return Opensea contract level metadata\n    /// @return _contractURI URI of json contract level metadatas\n    function contractURI() external view returns (string memory) {\n        return _contractURI;\n    }\n\n    /// @notice owner mint a reserve of tokens to specific address\n    /// @param receiver receiver of mint\n    /// @param quantity quantity gonna be mint\n    function mintOwner(address receiver, uint256 quantity) external onlyOwner{\n        require(nextTokenIdToClaim+quantity<=maxSupply,\"Up to maxsupply\");\n        emit Mints(nextTokenIdToClaim,receiver, quantity);\n        nextTokenIdToClaim += quantity;\n        _safeMint(receiver, quantity);\n    }\n\n    /// @notice get token URI for metadatas token\n    /// @param _tokenId id of token URI you want return\n    /// @return URI uri of token\n    function tokenURI(uint256 _tokenId) public view override returns (string memory) {\n        for (uint256 i = 0; i < baseURIIndices.length; i += 1) {\n            if (_tokenId < baseURIIndices[i]) {\n                if (encryptedBaseURI[baseURIIndices[i]].length != 0) {\n                    return string(abi.encodePacked(baseURI[baseURIIndices[i]], \"0\"));\n                } else {\n                    return string(abi.encodePacked(baseURI[baseURIIndices[i]], _tokenId.toString(),\".json\"));\n                }\n            }\n        }\n        return \"\";\n    }\n\n    /// @notice Prepare datas for mint tokens with base uri for tokens and optional revealable encrypted uri\n    /// @param _amount quantity of token you want to prepared mint\n    /// @param _baseURIForTokens real uri for your token if not _encryptedBaseURI or flask if encrypt _encryptedBaseURI exist\n    /// @param _encryptedBaseURI can be empty if not revealable or contain encrypt base uri\n    function lazyMint(\n        uint256 _amount,\n        string calldata _baseURIForTokens,\n        bytes calldata _encryptedBaseURI\n    ) external onlyOwner {\n        uint256 startId = nextTokenIdToMint;\n        uint256 baseURIIndex = startId + _amount;\n\n        nextTokenIdToMint = baseURIIndex;\n        baseURI[baseURIIndex] = _baseURIForTokens;\n        baseURIIndices.push(baseURIIndex);\n\n        if (_encryptedBaseURI.length != 0) {\n            encryptedBaseURI[baseURIIndex] = _encryptedBaseURI;\n        }\n        emit TokensLazyMinted(startId, startId + _amount - 1, _baseURIForTokens, _encryptedBaseURI);\n    }\n\n    /// @notice Reveal real metadatas uri of tokens hided in packs\n    /// @param index index of base uri value encrypted you want to reveal\n    /// @param _key key to decrypt uri\n    /// @return revealedURI decrypted uri of batch tokens\n    function reveal(uint256 index, bytes calldata _key)\n        external\n        onlyOwner\n        returns (string memory revealedURI)\n    {\n        if(index >= baseURIIndices.length)\n            revert InvalidIndex({\n                index: index,\n                baseURIIndicesLength: baseURIIndices.length\n            });\n\n        uint256 _index = baseURIIndices[index];\n        bytes memory encryptedURI = encryptedBaseURI[_index];\n        if(encryptedURI.length == 0)\n            revert NothingToReveal({\n                encryptedURILength: encryptedURI.length\n            });\n\n        revealedURI = string(encryptDecrypt(encryptedURI, _key));\n\n        baseURI[_index] = revealedURI;\n        delete encryptedBaseURI[_index];\n        emit NFTRevealed(_index, revealedURI);\n        return revealedURI;\n    }\n\n    /// @notice See: https://ethereum.stackexchange.com/questions/69825/decrypt-message-on-chain\n    /// @param data uri you want encrypt decrypt\n    /// @param key key of array bases uri indicies\n    function encryptDecrypt(bytes memory data, bytes calldata key) public pure returns (bytes memory result) {\n        // Store data length on stack for later use\n        uint256 length = data.length;\n\n        // solhint-disable-next-line no-inline-assembly\n        assembly {\n            // Set result to free memory pointer\n            result := mload(0x40)\n            // Increase free memory pointer by lenght + 32\n            mstore(0x40, add(add(result, length), 32))\n            // Set result length\n            mstore(result, length)\n        }\n\n        // Iterate over the data stepping by 32 bytes\n        for (uint256 i = 0; i < length; i += 32) {\n            // Generate hash of the key and offset\n            bytes32 hash = keccak256(abi.encodePacked(key, i));\n\n            bytes32 chunk;\n            // solhint-disable-next-line no-inline-assembly\n            assembly {\n                // Read 32-bytes data chunk\n                chunk := mload(add(data, add(i, 32)))\n            }\n            // XOR the chunk with hash\n            chunk ^= hash;\n            // solhint-disable-next-line no-inline-assembly\n            assembly {\n                // Write 32-byte encrypted chunk\n                mstore(add(result, add(i, 32)), chunk)\n            }\n        }\n    }\n\n    /*///////////////////////////////////////////////////////////////\n                            Claim logic\n    //////////////////////////////////////////////////////////////*/\n\n    /// @notice Lets an account claim NFTs.\n    /// @param _receiver address wallet of receiver during a claim\n    /// @param _quantity quantity of token you want to claim\n    /// @param _currency currency of token claimCondition\n    /// @param _pricePerToken price in wei per token for transaction\n    /// @param _proofs merkle proof \n    /// @param _proofMaxQuantityPerTransaction quantity of token into merkle proof\n    function claim(\n        address _receiver,\n        uint256 _quantity,\n        address _currency,\n        uint256 _pricePerToken,\n        bytes32[] calldata _proofs,\n        uint256 _proofMaxQuantityPerTransaction\n    ) external payable nonReentrant {\n        uint256 activeConditionId = getActiveClaimConditionId();\n        (bool validMerkleProof, uint256 merkleProofIndex) = verifyClaimMerkleProof(\n            activeConditionId,\n            _msgSender(),\n            _quantity,\n            _proofs,\n            _proofMaxQuantityPerTransaction\n        );\n        bool toVerifyMaxQuantityPerTransaction = _proofMaxQuantityPerTransaction == 0;\n        verifyClaim(\n            activeConditionId,\n            _msgSender(),\n            _quantity,\n            _currency,\n            _pricePerToken,\n            toVerifyMaxQuantityPerTransaction\n        );\n        //Mark the claimer's use of their position in the allowlist. \n        //A spot in an allowlist an be used only once.\n        if (validMerkleProof && _proofMaxQuantityPerTransaction > 0){\n            claimCondition.limitMerkleProofClaim[activeConditionId].set(merkleProofIndex);\n        }\n        collectClaimPrice(_quantity, _currency, _pricePerToken);\n        transferClaimedTokens(_receiver, activeConditionId, _quantity);\n        emit TokensClaimed(activeConditionId, _msgSender(), _receiver, nextTokenIdToClaim, _quantity);\n    }\n\n    /// @notice Lets a contract owner set claim conditions.\n    /// @param _phases array of new claim conditions updated\n    /// @param _resetClaimEligibility reset all value of claim conditions\n    function setClaimConditions(ClaimCondition[] calldata _phases, bool _resetClaimEligibility)\n        external\n        onlyOwner\n    {\n\n        uint256 existingStartIndex = claimCondition.currentStartId;\n        uint256 existingPhaseCount = claimCondition.count;\n\n        uint256 newStartIndex = existingStartIndex;\n        if (_resetClaimEligibility) {\n            newStartIndex = existingStartIndex + existingPhaseCount;\n        }\n\n        claimCondition.count = _phases.length;\n        claimCondition.currentStartId = newStartIndex;\n\n        uint256 lastConditionStartTimestamp;\n\n        for (uint256 i = 0; i < _phases.length; i++) {\n            if(i != 0 && lastConditionStartTimestamp >= _phases[i].startTimestamp)\n                revert StartTimeStamp({\n                    index: i,\n                    lastConditionStartTimestamp : lastConditionStartTimestamp,\n                    startTimestamp : _phases[i].startTimestamp\n                });\n            uint256 supplyClaimedAlready = claimCondition.phases[newStartIndex + i].supplyClaimed;\n            if(supplyClaimedAlready > _phases[i].maxClaimableSupply)\n                revert MaxSupply({\n                    index: i,\n                    supplyClaimedAlready : supplyClaimedAlready,\n                    maxClaimableSupply : _phases[i].maxClaimableSupply\n                });\n\n            claimCondition.phases[newStartIndex + i] = _phases[i];\n            claimCondition.phases[newStartIndex + i].supplyClaimed = supplyClaimedAlready;\n\n            lastConditionStartTimestamp = _phases[i].startTimestamp;\n        }\n        \n        if (_resetClaimEligibility) {\n            for (uint256 i = existingStartIndex; i < newStartIndex; i++) {\n                delete claimCondition.phases[i];\n                delete claimCondition.limitMerkleProofClaim[i];\n            }\n        } else {\n            if (existingPhaseCount > _phases.length) {\n                for (uint256 i = _phases.length; i < existingPhaseCount; i++) {\n                    delete claimCondition.phases[newStartIndex + i];\n                    delete claimCondition.limitMerkleProofClaim[newStartIndex + i];\n                }\n            }\n        }\n        emit ClaimConditionsUpdated(_phases);\n    }\n\n    /// @notice Collects and distributes the primary sale value of NFTs being claimed.\n    /// @param _quantityToClaim quantity user gonna be claimed\n    /// @param _currency currency of token claimCondition\n    /// @param _pricePerToken price in wei per token for transaction\n    function collectClaimPrice(\n        uint256 _quantityToClaim,\n        address _currency,\n        uint256 _pricePerToken\n    ) internal {\n        if (_pricePerToken == 0) {\n            return;\n        }\n\n        uint256 totalPrice = _quantityToClaim * _pricePerToken;\n        if(msg.value != totalPrice && _currency == CurrencyTransferLib.NATIVE_TOKEN)\n            revert PriceNotGood({\n                value: msg.value,\n                totalPrice : totalPrice\n            });\n\n        if(kanjiFeesBeneficiaries!=0){\n            uint256 inFee = (totalPrice * kanjiFeesBeneficiaries) / MAX_BPS;\n            CurrencyTransferLib.transferCurrency(_currency, _msgSender(), kanjiAddressFees, inFee);\n        }\n\n        for (uint256 index = 0; index < payeesBeneficiaries.length; index++) {\n            uint256 feeBeneficiarie = ((totalPrice) * sharesBeneficiaries[index]) / MAX_BPS;\n            CurrencyTransferLib.transferCurrency(_currency, _msgSender(), payeesBeneficiaries[index], feeBeneficiarie);\n        }\n    }\n\n    /// @notice Transfers the NFTs being claimed.\n    /// @param _to address wallet claimer\n    /// @param _conditionId current claim condition id\n    /// @param _quantityBeingClaimed quantity user gonna be claimed\n    function transferClaimedTokens(\n        address _to,\n        uint256 _conditionId,\n        uint256 _quantityBeingClaimed\n    ) internal {\n        // Update the supply minted under mint condition.\n        require(nextTokenIdToClaim + _quantityBeingClaimed<=maxSupply,\"Up to maxsupply\");\n        claimCondition.phases[_conditionId].supplyClaimed += _quantityBeingClaimed;\n\n        // if transfer claimed tokens is called when `to != _msgSender()`, it'd use _msgSender()'s limits.\n        // behavior would be similar to `_msgSender()` mint for itself, then transfer to `_to`.\n        claimCondition.limitLastClaimTimestamp[_conditionId][_msgSender()] = block.timestamp;\n        walletClaimCount[_msgSender()] += _quantityBeingClaimed;\n\n        uint256 tokenIdToClaim = nextTokenIdToClaim;\n\n        emit Mints(tokenIdToClaim,_to, _quantityBeingClaimed);\n        tokenIdToClaim += _quantityBeingClaimed;\n\n        nextTokenIdToClaim = tokenIdToClaim;\n        _safeMint(_to, _quantityBeingClaimed);\n    }\n\n    /// @notice Checks a request to claim NFTs against the active claim condition's criteria.\n    /// @param _conditionId id collection where you want to claim\n    /// @param _claimer address wallet of claimer\n    /// @param _quantity quantity of token you want to claim\n    /// @param _currency currency of token claimCondition\n    /// @param _pricePerToken price in wei per token for transaction\n    /// @param verifyMaxQuantityPerTransaction verify max quantity per transaction\n    function verifyClaim(\n        uint256 _conditionId,\n        address _claimer,\n        uint256 _quantity,\n        address _currency,\n        uint256 _pricePerToken,\n        bool verifyMaxQuantityPerTransaction\n    ) public view {\n        ClaimCondition memory currentClaimPhase = claimCondition.phases[_conditionId];\n        if(_currency != currentClaimPhase.currency || _pricePerToken != currentClaimPhase.pricePerToken)\n            revert InvalidPriceOrCurrency({\n                currency: _currency,\n                phaseCurrency: currentClaimPhase.currency,\n                pricePerToken : _pricePerToken,\n                phasePricePerToken : currentClaimPhase.pricePerToken\n            });\n        // If we're checking for an allowlist quantity restriction, ignore the general quantity restriction.\n        if(_quantity == 0 || (verifyMaxQuantityPerTransaction && _quantity > currentClaimPhase.quantityLimitPerTransaction))\n            revert InvalidQuantityClaimed({\n                quantity: _quantity,\n                verifyMaxQuantityPerTransaction: verifyMaxQuantityPerTransaction,\n                quantityLimitPerTransaction : currentClaimPhase.quantityLimitPerTransaction\n            });\n        if(currentClaimPhase.supplyClaimed + _quantity > currentClaimPhase.maxClaimableSupply)\n            revert ExceedMaxMintSupply({\n                quantity: _quantity,\n                supplyClaimed: currentClaimPhase.supplyClaimed,\n                maxClaimableSupply : currentClaimPhase.maxClaimableSupply\n            });\n        if(nextTokenIdToClaim + _quantity > nextTokenIdToMint)\n            revert NotEnoughMintedTokens({\n                quantity: _quantity,\n                nextTokenIdToClaim: nextTokenIdToClaim,\n                nextTokenIdToMint : nextTokenIdToMint\n            });\n        if(maxTotalSupply != 0 && nextTokenIdToClaim + _quantity > maxTotalSupply)\n            revert ExceedMaxTotalSupply({\n                quantity: _quantity,\n                maxTotalSupply: maxTotalSupply,\n                nextTokenIdToClaim : nextTokenIdToClaim\n            });\n        if(maxWalletClaimCount != 0 && walletClaimCount[_claimer] + _quantity > maxWalletClaimCount)\n            revert ExceedClaimLimitForWallet({\n                quantity: _quantity,\n                walletClaimCountClaimer: walletClaimCount[_claimer],\n                claimer: _claimer,\n                maxWalletClaimCount : maxWalletClaimCount\n            });\n        (uint256 lastClaimTimestamp, uint256 nextValidClaimTimestamp) = getClaimTimestamp(_conditionId, _claimer);\n        if(lastClaimTimestamp != 0 && block.timestamp < nextValidClaimTimestamp)\n            revert CannotClaimYet({\n                lastClaimTimestamp: lastClaimTimestamp,\n                blockTimestamp: block.timestamp,\n                nextValidClaimTimestamp: nextValidClaimTimestamp\n            });\n    }\n\n    /// @notice Checks whether a claimer meets the claim condition's allowlist criteria.\n    /// @param _conditionId id collection where you want to claim\n    /// @param _claimer address wallet of claimer\n    /// @param _quantity quantity of token you want to claim\n    /// @param _proofs merkle proof \n    /// @param _proofMaxQuantityPerTransaction quantity of token into merkle proof\n    function verifyClaimMerkleProof(\n        uint256 _conditionId,\n        address _claimer,\n        uint256 _quantity,\n        bytes32[] calldata _proofs,\n        uint256 _proofMaxQuantityPerTransaction\n    ) public view returns (bool validMerkleProof, uint256 merkleProofIndex) {\n        ClaimCondition memory currentClaimPhase = claimCondition.phases[_conditionId];\n\n        if (currentClaimPhase.merkleRoot != bytes32(0)) {\n            (validMerkleProof, merkleProofIndex) = MerkleProofLib.verify(\n                _proofs,\n                currentClaimPhase.merkleRoot,\n                keccak256(abi.encodePacked(_claimer, _proofMaxQuantityPerTransaction))\n            );\n            if(!validMerkleProof)\n                revert NotInWhitelist({\n                    validMerkleProof: validMerkleProof\n                });\n            if(claimCondition.limitMerkleProofClaim[_conditionId].get(merkleProofIndex))\n                revert ProofClaimed({\n                    conditionId: _conditionId,\n                    merkleProofIndex: merkleProofIndex,\n                    limitMerkleProofClaim: claimCondition.limitMerkleProofClaim[_conditionId].get(merkleProofIndex)\n                });\n            if(_proofMaxQuantityPerTransaction != 0 && _quantity > _proofMaxQuantityPerTransaction)\n                revert InvalidQuantityProof({\n                    proofMaxQuantityPerTransaction: _proofMaxQuantityPerTransaction,\n                    quantity: _quantity\n                });\n        }\n    }\n\n    /// @notice Returns the amount of stored baseURIs\n    /// @return length length of baseURIIndices\n    function getBaseURICount() external view returns (uint256) {\n        return baseURIIndices.length;\n    }\n\n    /// @notice Return current claim condition\n    function getActiveClaimConditionId() public view returns (uint256) {\n        for (uint256 i = claimCondition.count; i > 0; i--) {\n            if (block.timestamp >= claimCondition.phases[i - 1].startTimestamp && \n            (block.timestamp <= claimCondition.phases[i - 1].endTimestamp\n            ||\n            claimCondition.phases[i - 1].endTimestamp == 0)) {\n                return i - 1;\n            }\n        }\n        revert(\"no active mint condition.\");\n    }\n\n    /// @notice Return timestamp for next valid claim for only one claimer\n    /// @param _conditionId id of collection you wan to get claim timestamp\n    /// @param _claimer address wallet of one claimer\n    function getClaimTimestamp(uint256 _conditionId, address _claimer)\n        public\n        view\n        returns (uint256 lastClaimTimestamp, uint256 nextValidClaimTimestamp)\n    {\n        lastClaimTimestamp = claimCondition.limitLastClaimTimestamp[_conditionId][_claimer];\n\n        unchecked {\n            nextValidClaimTimestamp =\n                lastClaimTimestamp +\n                claimCondition.phases[_conditionId].waitTimeInSecondsBetweenClaims;\n\n            if (nextValidClaimTimestamp < lastClaimTimestamp) {\n                nextValidClaimTimestamp = type(uint256).max;\n            }\n        }\n    }\n\n    /// @notice Returns the claim condition at the given uid.\n    /// @param _conditionId if of collection you want to return\n    /// @return condition claim condition structure\n    function getClaimConditionById(uint256 _conditionId) external view returns (ClaimCondition memory condition) {\n        condition = claimCondition.phases[_conditionId];\n    }\n\n    /*///////////////////////////////////////////////////////////////\n                        Setter functions\n    //////////////////////////////////////////////////////////////*/\n\n    /// @notice Lets a contract admin set a claim count for a wallet.\n    /// @param _claimer address of claimer\n    /// @param _count current count of claim for one wallet\n    function setWalletClaimCount(address _claimer, uint256 _count) external onlyOwner {\n        walletClaimCount[_claimer] = _count;\n        emit WalletClaimCountUpdated(_claimer, _count);\n    }\n\n    /// @notice Lets a contract admin set a maximum number of NFTs that can be claimed by any wallet.\n    /// @param _count max claim for each wallet\n    function setMaxWalletClaimCount(uint256 _count) external onlyOwner {\n        maxWalletClaimCount = _count;\n        emit MaxWalletClaimCountUpdated(_count);\n    }\n\n    /// @notice Lets a contract admin set the global maximum supply for collection's NFTs.\n    /// @param _maxTotalSupply max supply of contract\n    function setMaxTotalSupply(uint256 _maxTotalSupply) external onlyOwner {\n        if(_maxTotalSupply >= nextTokenIdToMint)\n            revert MaxTotalySupply({\n                maxTotalSupply: _maxTotalSupply,\n                nextTokenIdToMint: nextTokenIdToMint\n            });\n        //require(_maxTotalSupply < nextTokenIdToMint, \"MAX\");\n        maxTotalSupply = _maxTotalSupply;\n        emit MaxTotalSupplyUpdated(_maxTotalSupply);\n    }\n\n    /// @notice Temporarily lock the contract\n    function pause() external onlyOwner {\n        paused=!paused;\n        emit Pause(paused);\n    }\n\n    /// @notice Temporarily lock the contract\n    /// @param from address of from transfer\n    /// @param to address of to transfer\n    /// @param startTokenId id of start token\n    /// @param quantity quantity of transfered token\n    function _beforeTokenTransfers(\n        address from,\n        address to,\n        uint256 startTokenId,\n        uint256 quantity\n    ) internal virtual override(ERC721A) {\n        if(paused && ownerOf(startTokenId) != owner())\n            revert Paused({\n                paused: paused,\n                owner: owner(),\n                ownerOfToken: ownerOf(startTokenId),\n                startTokenId: startTokenId\n            });\n        super._beforeTokenTransfers(from, to, startTokenId, quantity);\n    }\n\n}\n",
  "sourcePath": "/home/kevin/Bureau/homework/contracts/contracts/KANJIDROPERC721A.sol",
  "compiler": {
    "name": "solc",
    "version": "0.8.11+commit.d7f03943.Emscripten.clang"
  },
  "schemaVersion": "3.4.7",
  "updatedAt": "2022-08-17T16:40:49.096Z",
  "devdoc": {
    "events": {
      "ClaimConditionsUpdated((uint256,uint256,uint256,uint256,uint256,uint256,uint256,bytes32,address)[])": {
        "details": "Emitted when new claim conditions are set."
      },
      "MaxTotalSupplyUpdated(uint256)": {
        "details": "Emitted when the global max supply of tokens is updated."
      },
      "MaxWalletClaimCountUpdated(uint256)": {
        "details": "Emitted when the global max wallet claim count is updated."
      },
      "NFTRevealed(uint256,string)": {
        "details": "Emitted when the URI for a batch of 'delayed-reveal' NFTs is revealed."
      },
      "TokensLazyMinted(uint256,uint256,string,bytes)": {
        "details": "Emitted when tokens are lazy minted."
      },
      "WalletClaimCountUpdated(address,uint256)": {
        "details": "Emitted when the wallet claim count for an address is updated."
      }
    },
    "kind": "dev",
    "methods": {
      "approve(address,uint256)": {
        "details": "See {IERC721-approve}."
      },
      "balanceOf(address)": {
        "details": "See {IERC721-balanceOf}."
      },
      "claim(address,uint256,address,uint256,bytes32[],uint256)": {
        "params": {
          "_currency": "currency of token claimCondition",
          "_pricePerToken": "price in wei per token for transaction",
          "_proofMaxQuantityPerTransaction": "quantity of token into merkle proof",
          "_proofs": "merkle proof ",
          "_quantity": "quantity of token you want to claim",
          "_receiver": "address wallet of receiver during a claim"
        }
      },
      "contractURI()": {
        "returns": {
          "_0": "_contractURI URI of json contract level metadatas"
        }
      },
      "encryptDecrypt(bytes,bytes)": {
        "params": {
          "data": "uri you want encrypt decrypt",
          "key": "key of array bases uri indicies"
        }
      },
      "getApproved(uint256)": {
        "details": "See {IERC721-getApproved}."
      },
      "getBaseURICount()": {
        "returns": {
          "_0": "length length of baseURIIndices"
        }
      },
      "getClaimConditionById(uint256)": {
        "params": {
          "_conditionId": "if of collection you want to return"
        },
        "returns": {
          "condition": "claim condition structure"
        }
      },
      "getClaimTimestamp(uint256,address)": {
        "params": {
          "_claimer": "address wallet of one claimer",
          "_conditionId": "id of collection you wan to get claim timestamp"
        }
      },
      "getShares(address)": {
        "details": "Getter for the amount of shares held by an account."
      },
      "isApprovedForAll(address,address)": {
        "details": "See {IERC721-isApprovedForAll}."
      },
      "lazyMint(uint256,string,bytes)": {
        "params": {
          "_amount": "quantity of token you want to prepared mint",
          "_baseURIForTokens": "real uri for your token if not _encryptedBaseURI or flask if encrypt _encryptedBaseURI exist",
          "_encryptedBaseURI": "can be empty if not revealable or contain encrypt base uri"
        }
      },
      "mintOwner(address,uint256)": {
        "params": {
          "quantity": "quantity gonna be mint",
          "receiver": "receiver of mint"
        }
      },
      "name()": {
        "details": "See {IERC721Metadata-name}."
      },
      "owner()": {
        "details": "Returns the address of the current owner."
      },
      "ownerOf(uint256)": {
        "details": "See {IERC721-ownerOf}."
      },
      "payee(uint256)": {
        "details": "Getter for the address of the payee number `index`."
      },
      "release(address)": {
        "details": "Triggers a transfer to `account` of the amount of Ether they are owed, according to their percentage of the total shares and their previous withdrawals."
      },
      "releaseAll()": {
        "details": "release All shares for each payees"
      },
      "released(address)": {
        "details": "Getter for the amount of Ether already released to a payee."
      },
      "renounceOwnership()": {
        "details": "Leaves the contract without owner. It will not be possible to call `onlyOwner` functions anymore. Can only be called by the current owner. NOTE: Renouncing ownership will leave the contract without an owner, thereby removing any functionality that is only available to the owner."
      },
      "reveal(uint256,bytes)": {
        "params": {
          "_key": "key to decrypt uri",
          "index": "index of base uri value encrypted you want to reveal"
        },
        "returns": {
          "revealedURI": "decrypted uri of batch tokens"
        }
      },
      "royaltyInfo(uint256,uint256)": {
        "details": "Returns how much royalty is owed and to whom, based on a sale price that may be denominated in any unit of exchange. The royalty amount is denominated and should be payed in that same unit of exchange."
      },
      "safeTransferFrom(address,address,uint256)": {
        "details": "See {IERC721-safeTransferFrom}."
      },
      "safeTransferFrom(address,address,uint256,bytes)": {
        "details": "See {IERC721-safeTransferFrom}."
      },
      "setApprovalForAll(address,bool)": {
        "details": "See {IERC721-setApprovalForAll}."
      },
      "setClaimConditions((uint256,uint256,uint256,uint256,uint256,uint256,uint256,bytes32,address)[],bool)": {
        "params": {
          "_phases": "array of new claim conditions updated",
          "_resetClaimEligibility": "reset all value of claim conditions"
        }
      },
      "setMaxTotalSupply(uint256)": {
        "params": {
          "_maxTotalSupply": "max supply of contract"
        }
      },
      "setMaxWalletClaimCount(uint256)": {
        "params": {
          "_count": "max claim for each wallet"
        }
      },
      "setWalletClaimCount(address,uint256)": {
        "params": {
          "_claimer": "address of claimer",
          "_count": "current count of claim for one wallet"
        }
      },
      "symbol()": {
        "details": "See {IERC721Metadata-symbol}."
      },
      "tokenURI(uint256)": {
        "params": {
          "_tokenId": "id of token URI you want return"
        },
        "returns": {
          "_0": "URI uri of token"
        }
      },
      "totalReleased()": {
        "details": "Getter for the total amount of Ether already released."
      },
      "totalShares()": {
        "details": "Getter for the total shares held by payees."
      },
      "totalSupply()": {
        "details": "Burned tokens are calculated here, use _totalMinted() if you want to count just minted tokens."
      },
      "transferFrom(address,address,uint256)": {
        "details": "See {IERC721-transferFrom}."
      },
      "transferOwnership(address)": {
        "details": "Transfers ownership of the contract to a new account (`newOwner`). Can only be called by the current owner."
      },
      "verifyClaim(uint256,address,uint256,address,uint256,bool)": {
        "params": {
          "_claimer": "address wallet of claimer",
          "_conditionId": "id collection where you want to claim",
          "_currency": "currency of token claimCondition",
          "_pricePerToken": "price in wei per token for transaction",
          "_quantity": "quantity of token you want to claim",
          "verifyMaxQuantityPerTransaction": "verify max quantity per transaction"
        }
      },
      "verifyClaimMerkleProof(uint256,address,uint256,bytes32[],uint256)": {
        "params": {
          "_claimer": "address wallet of claimer",
          "_conditionId": "id collection where you want to claim",
          "_proofMaxQuantityPerTransaction": "quantity of token into merkle proof",
          "_proofs": "merkle proof ",
          "_quantity": "quantity of token you want to claim"
        }
      }
    },
    "stateVariables": {
      "MAX_BPS": {
        "details": "Max bps in the system."
      },
      "MODULE_TYPE": {
        "details": "Type of contract"
      },
      "VERSION": {
        "details": "Version of contract"
      },
      "_INTERFACE_ID_ERC2981": {
        "details": "INTERFACE SUPPORTED"
      },
      "_contractURI": {
        "details": "open sea contract level metadata"
      },
      "baseURI": {
        "details": "Mapping from 'Largest tokenId of a batch of tokens with the same baseURI'       to base URI for the respective batch of tokens.*"
      },
      "baseURIIndices": {
        "details": "Largest tokenId of each batch of tokens with the same baseURI"
      },
      "claimCondition": {
        "details": "The set of all claim conditions, at any given moment."
      },
      "encryptedBaseURI": {
        "details": "Mapping from 'Largest tokenId of a batch of 'delayed-reveal' tokens with       the same baseURI' to encrypted base URI for the respective batch of tokens.*"
      },
      "kanjiAddressFees": {
        "details": "The address of receiver fees of KANJI"
      },
      "kanjiFeesBeneficiaries": {
        "details": "The amount % of receiver fees of KANJI (10000 = 100 %) "
      },
      "maxSupply": {
        "details": "Max total mint for customer only"
      },
      "maxTotalSupply": {
        "details": "Global max total supply of NFTs."
      },
      "maxWalletClaimCount": {
        "details": "The max number of NFTs a wallet can claim."
      },
      "nextTokenIdToClaim": {
        "details": "The next token ID of the NFT that can be claimed."
      },
      "nextTokenIdToMint": {
        "details": "The next token ID of the NFT to \"lazy mint\"."
      },
      "paused": {
        "details": "pause the transfer only by owner"
      },
      "payeesBeneficiaries": {
        "details": "The address of receiver fees of beneficiaries BRAND for each claim"
      },
      "sharesBeneficiaries": {
        "details": "The amount % of receiver fees of beneficiaries BRAND (10000 = 100 %) for each claim"
      },
      "walletClaimCount": {
        "details": "Mapping from address => total number of NFTs a wallet has claimed."
      }
    },
    "version": 1
  },
  "userdoc": {
    "kind": "user",
    "methods": {
      "claim(address,uint256,address,uint256,bytes32[],uint256)": {
        "notice": "Lets an account claim NFTs."
      },
      "contractURI()": {
        "notice": "return Opensea contract level metadata"
      },
      "encryptDecrypt(bytes,bytes)": {
        "notice": "See: https://ethereum.stackexchange.com/questions/69825/decrypt-message-on-chain"
      },
      "getActiveClaimConditionId()": {
        "notice": "Return current claim condition"
      },
      "getBaseURICount()": {
        "notice": "Returns the amount of stored baseURIs"
      },
      "getClaimConditionById(uint256)": {
        "notice": "Returns the claim condition at the given uid."
      },
      "getClaimTimestamp(uint256,address)": {
        "notice": "Return timestamp for next valid claim for only one claimer"
      },
      "lazyMint(uint256,string,bytes)": {
        "notice": "Prepare datas for mint tokens with base uri for tokens and optional revealable encrypted uri"
      },
      "mintOwner(address,uint256)": {
        "notice": "owner mint a reserve of tokens to specific address"
      },
      "pause()": {
        "notice": "Temporarily lock the contract"
      },
      "reveal(uint256,bytes)": {
        "notice": "Reveal real metadatas uri of tokens hided in packs"
      },
      "setClaimConditions((uint256,uint256,uint256,uint256,uint256,uint256,uint256,bytes32,address)[],bool)": {
        "notice": "Lets a contract owner set claim conditions."
      },
      "setMaxTotalSupply(uint256)": {
        "notice": "Lets a contract admin set the global maximum supply for collection's NFTs."
      },
      "setMaxWalletClaimCount(uint256)": {
        "notice": "Lets a contract admin set a maximum number of NFTs that can be claimed by any wallet."
      },
      "setWalletClaimCount(address,uint256)": {
        "notice": "Lets a contract admin set a claim count for a wallet."
      },
      "tokenURI(uint256)": {
        "notice": "get token URI for metadatas token"
      },
      "verifyClaim(uint256,address,uint256,address,uint256,bool)": {
        "notice": "Checks a request to claim NFTs against the active claim condition's criteria."
      },
      "verifyClaimMerkleProof(uint256,address,uint256,bytes32[],uint256)": {
        "notice": "Checks whether a claimer meets the claim condition's allowlist criteria."
      }
    },
    "version": 1
  }
}