{
  "contractName": "MV",
  "abi": [
    {
      "inputs": [],
      "stateMutability": "nonpayable",
      "type": "constructor"
    },
    {
      "anonymous": false,
      "inputs": [
        {
          "indexed": true,
          "internalType": "address",
          "name": "previousOwner",
          "type": "address"
        },
        {
          "indexed": true,
          "internalType": "address",
          "name": "newOwner",
          "type": "address"
        }
      ],
      "name": "OwnershipTransferred",
      "type": "event"
    },
    {
      "inputs": [],
      "name": "owner",
      "outputs": [
        {
          "internalType": "address",
          "name": "",
          "type": "address"
        }
      ],
      "stateMutability": "view",
      "type": "function"
    },
    {
      "inputs": [],
      "name": "renounceOwnership",
      "outputs": [],
      "stateMutability": "nonpayable",
      "type": "function"
    },
    {
      "inputs": [
        {
          "internalType": "uint256",
          "name": "_tokenId",
          "type": "uint256"
        },
        {
          "internalType": "uint256",
          "name": "_salePrice",
          "type": "uint256"
        }
      ],
      "name": "royaltyInfo",
      "outputs": [
        {
          "internalType": "address",
          "name": "",
          "type": "address"
        },
        {
          "internalType": "uint256",
          "name": "",
          "type": "uint256"
        }
      ],
      "stateMutability": "view",
      "type": "function"
    },
    {
      "inputs": [
        {
          "internalType": "bytes4",
          "name": "interfaceId",
          "type": "bytes4"
        }
      ],
      "name": "supportsInterface",
      "outputs": [
        {
          "internalType": "bool",
          "name": "",
          "type": "bool"
        }
      ],
      "stateMutability": "view",
      "type": "function"
    },
    {
      "inputs": [
        {
          "internalType": "address",
          "name": "newOwner",
          "type": "address"
        }
      ],
      "name": "transferOwnership",
      "outputs": [],
      "stateMutability": "nonpayable",
      "type": "function"
    },
    {
      "inputs": [
        {
          "internalType": "uint256",
          "name": "_value",
          "type": "uint256"
        }
      ],
      "name": "editValue",
      "outputs": [],
      "stateMutability": "nonpayable",
      "type": "function"
    },
    {
      "inputs": [],
      "name": "returnValue",
      "outputs": [
        {
          "internalType": "uint256",
          "name": "",
          "type": "uint256"
        }
      ],
      "stateMutability": "view",
      "type": "function"
    }
  ],
  "bytecode": "0x608060405234801561001057600080fd5b5061001a33610023565b60018055610073565b600080546001600160a01b038381166001600160a01b0319831681178455604051919092169283917f8be0079c531659141344cd1fd0a4f28419497f9722a3daafe3b4186f6b6457e09190a35050565b6104bb806100826000396000f3fe608060405234801561001057600080fd5b506004361061007d5760003560e01c8063746783c11161005b578063746783c1146100e65780638da5cb5b146100f9578063990c8f7914610114578063f2fde38b1461012557600080fd5b806301ffc9a7146100825780632a55205a146100aa578063715018a6146100dc575b600080fd5b6100956100903660046103a1565b610138565b60405190151581526020015b60405180910390f35b6100bd6100b83660046103d2565b61016f565b604080516001600160a01b0390931683526020830191909152016100a1565b6100e461021b565b005b6100e46100f43660046103f4565b600455565b6000546040516001600160a01b0390911681526020016100a1565b6004546040519081526020016100a1565b6100e461013336600461040d565b610286565b60006001600160e01b0319821663152a902d60e11b148061016957506301ffc9a760e01b6001600160e01b03198316145b92915050565b60008281526003602090815260408083208151808301909252546001600160a01b038116808352600160a01b9091046001600160601b03169282019290925282916101e45750604080518082019091526002546001600160a01b0381168252600160a01b90046001600160601b031660208201525b602081015160009061271090610203906001600160601b031687610436565b61020d9190610463565b915196919550909350505050565b6000546001600160a01b0316331461027a5760405162461bcd60e51b815260206004820181905260248201527f4f776e61626c653a2063616c6c6572206973206e6f7420746865206f776e657260448201526064015b60405180910390fd5b6102846000610351565b565b6000546001600160a01b031633146102e05760405162461bcd60e51b815260206004820181905260248201527f4f776e61626c653a2063616c6c6572206973206e6f7420746865206f776e65726044820152606401610271565b6001600160a01b0381166103455760405162461bcd60e51b815260206004820152602660248201527f4f776e61626c653a206e6577206f776e657220697320746865207a65726f206160448201526564647265737360d01b6064820152608401610271565b61034e81610351565b50565b600080546001600160a01b038381166001600160a01b0319831681178455604051919092169283917f8be0079c531659141344cd1fd0a4f28419497f9722a3daafe3b4186f6b6457e09190a35050565b6000602082840312156103b357600080fd5b81356001600160e01b0319811681146103cb57600080fd5b9392505050565b600080604083850312156103e557600080fd5b50508035926020909101359150565b60006020828403121561040657600080fd5b5035919050565b60006020828403121561041f57600080fd5b81356001600160a01b03811681146103cb57600080fd5b600081600019048311821515161561045e57634e487b7160e01b600052601160045260246000fd5b500290565b60008261048057634e487b7160e01b600052601260045260246000fd5b50049056fea2646970667358221220c058159af48f004cb67e838c0ddbfa46d6e3dd571740df8427e035ef84c5ce2964736f6c634300080b0033",
  "immutableReferences": {},
  "source": "// SPDX-License-Identifier: MIT\n// KANJIERC721A.sol\npragma solidity ^0.8.6;\n\n//import '@openzeppelin/contracts/token/ERC721/extensions/ERC721URIStorage.sol';\nimport \"@openzeppelin/contracts/access/Ownable.sol\";\nimport \"@openzeppelin/contracts/token/common/ERC2981.sol\";\nimport \"@openzeppelin/contracts/security/ReentrancyGuard.sol\";\nimport \"@openzeppelin/contracts/utils/Strings.sol\";\n\ncontract MV is Ownable, ReentrancyGuard, ERC2981 {\n    using Strings for uint256;\n\n    uint256 value;\n\n    constructor( ){\n    }\n\n    function editValue(uint256 _value) external {\n        value = _value;\n    }\n\n    function returnValue() external view returns(uint256){\n        return value;\n    }\n\n}",
  "sourcePath": "/home/kevin/Bureau/homework/miniverse/contracts/contracts/MV.sol",
  "compiler": {
    "name": "solc",
    "version": "0.8.11+commit.d7f03943.Emscripten.clang"
  },
  "schemaVersion": "3.4.7",
  "updatedAt": "2022-08-18T06:41:37.827Z",
  "devdoc": {
    "kind": "dev",
    "methods": {
      "owner()": {
        "details": "Returns the address of the current owner."
      },
      "renounceOwnership()": {
        "details": "Leaves the contract without owner. It will not be possible to call `onlyOwner` functions anymore. Can only be called by the current owner. NOTE: Renouncing ownership will leave the contract without an owner, thereby removing any functionality that is only available to the owner."
      },
      "royaltyInfo(uint256,uint256)": {
        "details": "Returns how much royalty is owed and to whom, based on a sale price that may be denominated in any unit of exchange. The royalty amount is denominated and should be payed in that same unit of exchange."
      },
      "supportsInterface(bytes4)": {
        "details": "See {IERC165-supportsInterface}."
      },
      "transferOwnership(address)": {
        "details": "Transfers ownership of the contract to a new account (`newOwner`). Can only be called by the current owner."
      }
    },
    "version": 1
  },
  "userdoc": {
    "kind": "user",
    "methods": {},
    "version": 1
  }
}